:020000040000FA
:040000005DEF00F0C0
:100008007E0A7E0A7E0A7E0A7E0A7E0A7E0A7E0AA8
:100018006A0A7E0A7E0A7E0A7E0A7E0A7E0A7E0AAC
:100028007E0A2E002E002E007E0A7E0A7E0A7E0A96
:100038007E0A7E0A7E0AA3097E0A7D0A7E0A7E0A55
:100048007E0A780A7E0A7E0A7E0A7C0A7E0A7E0A70
:100058007E0A7E0A7E0A2E007E0A7E0A7E0A7E0AB2
:100068006C0A7E0A7E0A7E0A7E0A7E0A7E0A2E00B4
:100078007E0A7E0A7E0A7E0A2E007E0A7E0A7E0A92
:100088007E0A7E0A7E0A7E0A2E007E0A2E007E0ADC
:100098007E0A7E0A7E0A7E0A7E0A7E0A7E0A7E0A18
:1000A8006E0A2E002E007E0A7E0A7E0A7E0A7E0ACC
:0600B800FF00E8EF13F069
:10160000006C210000D22800000000602956294209
:10161000290000000000000000EA281827D2290055
:10162000000000742900006024D8290000EA267E0A
:101630002900001824CC290000BC266A2900004596
:101640006E636F6465722056616C75653A2025691A
:101650000A0D566F6C756D653A2025690A0D0000FC
:1016600030C5ABF531C5ACF532C5ADF533C5AEF51A
:1016700034C5AFF535C5B0F536C5B1F537C5B2F5EA
:101680000501B2BF46EF0BF049EF0BF0010E4AEF38
:101690000BF0000EA96FAA6BA951AA11D8B453EF91
:1016A0000BF055EF0BF065EF0BF0B21FB11FB01F41
:1016B000AF1FAE1FAD1FAC1FAB6D000EAC23AD2333
:1016C000AE23AF23B023B123B22341BE6AEF0BF0A8
:1016D0006CEF0BF06DEF0BF0429241BE7AEF0BF026
:1016E000415006E14004D8B078EF0BF07AEF0BF0F0
:1016F00080EF0BF0000EA66F010EA56F84EF0BF0CC
:1017000040C5A5F541C5A6F57AC5A7F57BC5A8F5E1
:10171000A951AA11D8A48FEF0BF091EF0BF098EF1D
:101720000BF042A496EF0BF098EF0BF09BEF0BF051
:10173000A707D8A0A807000EB46F1F0EB36F000E46
:10174000A26F20EF0CF0B307D8A0B407830EB32527
:10175000D96E050EB421DA6EABC511F5ACC512F524
:10176000ADC513F5AEC514F5AFC515F5B0C516F585
:10177000B1C517F5B2C518F50A0E196E000E1A6E2E
:10178000000E1B6E000E1C6E000E1D6E000E1E6EF7
:10179000000E1F6E000E206E62EC0EF011C538F5C3
:1017A00012C539F513C53AF514C53BF515C53CF519
:1017B00016C53DF517C53EF518C53FF538C523F5E7
:1017C0003AC524F597EC12F02350300FDF6E050177
:1017D000A507D8A0A607A707D8A0A807ABC511F5ED
:1017E000ACC512F5ADC513F5AEC514F5AFC515F50D
:1017F000B0C516F5B1C517F5B2C518F50A0E196EC4
:10180000000E1A6E000E1B6E000E1C6E000E1D6E7A
:10181000000E1E6E000E1F6E000E206E9EEC0DF070
:1018200011C5ABF512C5ACF513C5ADF514C5AEF5D4
:1018300015C5AFF516C5B0F517C5B1F518C5B2F5A4
:101840000501B4BF2CEF0CF0B45108E1B305D8A0EA
:101850002CEF0CF02EEF0CF05EEF0CF0AB51AC1156
:10186000AD11AE11AF11B011B111B211D8A43BEF4F
:101870000CF03DEF0CF0A3EF0BF0A6BF4AEF0CF01D
:10188000A65106E1A505D8B048EF0CF04AEF0CF0E0
:10189000A3EF0BF0A8BF55EF0CF0A85108E1A70586
:1018A000D8A055EF0CF057EF0CF05EEF0CF042B201
:1018B0005CEF0CF05EEF0CF0A3EF0BF0A951AA1156
:1018C000D8A465EF0CF067EF0CF06EEF0CF042A4BB
:1018D0006CEF0CF06EEF0CF08DEF0CF0B307D8A0AE
:1018E000B407A951AA11D8A478EF0CF07AEF0CF044
:1018F00080EF0CF0000EA46F2B0EA36F84EF0CF0A2
:10190000000EA46F2D0EA36F830EB325D96E050EA6
:10191000B421DA6E61008CF6DFF42EC523F52FC5F5
:1019200024F5830EB325256E050EB421266EA7C5BA
:1019300027F5A8C528F596EC0FF023C52EF524C58C
:101940002FF512006100DCF6D9F46100E0F6DAF45C
:10195000DEC4F6F4DDC4F7F4F86A0800F550250A91
:10196000D8A4B5EF0CF0B7EF0CF07DEF0DF06100EF
:10197000DCF6D9F46100E0F6DAF4DE2A000EDD22AE
:10198000000E05017B6F000E7A6F7AC542F57BC5AC
:1019900043F5406841686100DCF6D9F46100E0F687
:1019A000DAF4DEC4F6F4DDC4F7F4F86A0800F550A2
:1019B000640AD8B4DEEF0CF0E0EF0CF0F5EF0CF0B9
:1019C0006100DCF6D9F46100E0F6DAF4DEC4F6F486
:1019D000DDC4F7F4F86A0800F550690AD8A4F3EFFB
:1019E0000CF0F5EF0CF03FEF0DF06100DCF6D9F4F0
:1019F0006100E0F6DAF4DE2A000EDD226100E4F692
:101A0000D9F46100E8F6DAF461007CF3BBF5020E6C
:101A1000DE2661007CF3BCF5000EDD226100ECF6F1
:101A2000D9F46100F0F6DAF4610078F3BDF56100F5
:101A300074F3BEF5000EBEBFFF0EBF6FC06FC16F67
:101A4000C26FC36FC46FB5C52EF5B6C52FF5BDC542
:101A500030F5BEC531F5BFC532F5C0C533F5C1C5DA
:101A600034F5C2C535F5C3C536F5C4C537F530EC18
:101A70000BF02EC5B5F52FC5B6F59DEF0DF0610045
:101A8000DCF6D9F46100E0F6DAF4DEC4F6F4DDC485
:101A9000F7F4F86A0800F550250AD8A452EF0DF0C3
:101AA00054EF0DF06EEF0DF06100DCF6D9F461003B
:101AB000E0F6DAF4DE2A000EDD22000E146E250EAA
:101AC000136EB5C515F5B6C516F50EEC11F0000E82
:101AD0000501B66F010EB56F9DEF0DF06100DCF6EC
:101AE000D9F46100E0F6DAF4DE2A000EDD22000E01
:101AF000B66F000EB56F9DEF0DF06100DCF6D9F406
:101B00006100E0F6DAF4DEC4F6F4DDC4F7F4F86A56
:101B10000800F550136E146AB5C515F5B6C516F56F
:101B20000EEC11F06100DCF6D9F46100E0F6DAF4B5
:101B3000DE2A000EDD2267EF0DF01200000E226E8D
:101B400020BEA7EF0DF0A5EF0DF0B9EF0DF0201EB0
:101B50001F1E1E1E1D1E1C1E1B1E1A1E196C000E93
:101B60001A221B221C221D221E221F222022010EAD
:101B7000226E18BEC0EF0DF0BEEF0DF0D2EF0DF0EB
:101B8000181E171E161E151E141E131E121E116C73
:101B9000000E1222132214221522162217221822B6
:101BA000010E221A21EE23F1070EDE6AE806FDE29D
:101BB00019501A101B101C101D101E101F10201081
:101BC000D8B4E5EF0DF0E7EF0DF039EF0EF0010EB0
:101BD000216EF5EF0DF0D89019361A361B361C36EB
:101BE0001D361E361F362036212A20AEFAEF0DF0A4
:101BF000FCEF0DF0EBEF0DF0D890233624362536B0
:101C000026362736283629362A361950115C1A50BE
:101C100012581B5013581C5014581D5015581E5064
:101C200016581F50175820501858D8A01AEF0EF009
:101C30001CEF0EF02DEF0EF01950115E1A50125AD3
:101C40001B50135A1C50145A1D50155A1E50165A28
:101C50001F50175A2050185A2380D89020321F3214
:101C60001E321D321C321B321A321932212EFCEF69
:101C70000DF02250D8B43FEF0EF041EF0EF051EFCF
:101C80000EF02A1E291E281E271E261E251E241E73
:101C9000236C000E242225222622272228222922F4
:101CA0002A2223C511F524C512F525C513F526C52D
:101CB00014F527C515F528C516F529C517F52AC544
:101CC00018F51200000E226E18BE6BEF0EF069EFD1
:101CD0000EF07DEF0EF0181E171E161E151E141E98
:101CE000131E121E116C000E122213221422152232
:101CF000162217221822010E226E20BE84EF0EF04B
:101D000082EF0EF094EF0EF0201E1F1E1E1E1D1EF1
:101D10001C1E1B1E1A1E196C000E1A221B221C22CE
:101D20001D221E221F22202219501A101B101C10C7
:101D30001D101E101F102010D8B4A1EF0EF0A3EF3D
:101D40000EF0EBEF0EF0010E216EB1EF0EF0D89019
:101D500019361A361B361C361D361E361F362036EF
:101D6000212A20AEB6EF0EF0B8EF0EF0A7EF0EF07E
:101D70001950115C1A5012581B5013581C5014580B
:101D80001D5015581E5016581F50175820501858DF
:101D9000D8A0CDEF0EF0CFEF0EF0DFEF0EF0195020
:101DA000115E1A50125A1B50135A1C50145A1D50CF
:101DB000155A1E50165A1F50175A2050185AD890AC
:101DC00020321F321E321D321C321B321A3219329F
:101DD000212EB8EF0EF02250D8B4F1EF0EF0F3EF51
:101DE0000EF003EF0FF0181E171E161E151E141E00
:101DF000131E121E116C000E122213221422152221
:101E000016221722182211C511F512C512F513C595
:101E100013F514C514F515C515F516C516F517C532
:101E200017F518C518F5120012EC14F080EC14F038
:101E300059EC14F003011483000E126E000E116EA3
:101E400075EC13F0ECEC14F003012583000E126E18
:101E5000000E116E5EEC13F0E6EC14F0EE0E116E57
:101E60001F0E126EBAEC14F0E9EC14F0D68ED68C7C
:101E7000000E0501D96F000ED86F000EDB6F010E4A
:101E8000DA6FF3EC14F00009D8B449EF0FF04BEF20
:101E90000FF087EF0FF0E0EC14F08DEC14F0115020
:101EA0000501D8271250D9238DEC14F011C513F574
:101EB00012C514F5D6EC12F057EC10F0140E050113
:101EC000DA19DB11D8A467EF0FF069EF0FF085EF97
:101ED0000FF03F0ECD6F160ECE6FD8C5CFF5D9C51A
:101EE000D0F5F5EC14F00501D76FD751D16FD26B57
:101EF000FEEC13F0000E0501DB6F010EDA6F000E31
:101F0000D96F000ED86F87EF0FF0DA4BDB2BE3ECC5
:101F100014F00009D8B48FEF0FF091EF0FF041EFFC
:101F20000FF000F041EF0FF05DEF00F042A09BEFEB
:101F30000FF09DEF0FF0A7EF0FF025C51CF526C59C
:101F40001DF523C51EF524C51FF554EC12F028BE5F
:101F5000ACEF0FF0AEEF0FF0B4EF0FF027C52CF59C
:101F600028C52DF5B8EF0FF0000E2D6E000E2C6E6B
:101F7000000E2B6E000E2A6ECAEF0FF0000E146ECC
:101F8000200E136E23C515F524C516F50EEC11F0C1
:101F90002A4A2B2A2C502A5C2B50800A296E2D505D
:101FA000800A2958D8A0D7EF0FF0D9EF0FF0BEEF75
:101FB0000FF042B0DEEF0FF0E0EF0FF0EAEF0FF0BE
:101FC00025C51CF526C51DF523C51EF524C51FF521
:101FD00054EC12F025C511F526C512F5F4EC12F0FB
:101FE0002C501124236E2D501220246E120048EC28
:101FF00014F001C50DF502C50EF537EC14F001C55E
:102000000FF502C510F5000E0A6E000E096E000EE7
:102010000C6E000E0B6E46500D5C47500E58D8B03B
:1020200014EF10F016EF10F01EEF10F0461C096EC2
:10203000471C0A6E000E476E000E466E44500F5C41
:1020400045501058D8B027EF10F029EF10F031EFBD
:1020500010F0441C0B6E451C0C6E000E456E000EFD
:10206000446E46500D5C076E47500E58086E075080
:10207000092608500A2244500F5C076E455010583C
:10208000086E07500B2608500C220B50095C050106
:102090007C6F0C500A587D6F010E496E0DC546F5D8
:1020A0000EC547F50FC544F510C545F51200000EE5
:1020B000C06EBE98BE9A4850D8B461EF10F063EF7E
:1020C00010F064EF10F0C0800E0E48646AEF10F05C
:1020D0006CEF10F06DEF10F0C082180E486473EFD3
:1020E00010F075EF10F076EF10F0C084220E486407
:1020F0007CEF10F07EEF10F07FEF10F0C0862C0E1A
:10210000486485EF10F087EF10F088EF10F0C0887A
:10211000360E48648EEF10F090EF10F091EF10F053
:10212000C08A400E486497EF10F099EF10F09AEFD4
:1021300010F0C08C4A0E4864A0EF10F0A2EF10F02F
:10214000A3EF10F0C08E540E4864A9EF10F0ABEF6F
:1021500010F0ACEF10F0BE88630E4864B2EF10F0E0
:10216000B4EF10F0B5EF10F0BE8A1200AC90000E84
:10217000116E000E126E9CEC14F0AC92EC0E116E0F
:10218000240E126E97EC14F0AC94000E116E000E3B
:10219000126EA6EC14F0AC96000E116E000E126ECC
:1021A00092EC14F0000E0201A16F000EA26F000E5F
:1021B000A36F000EA46F000EA56F000EA66F000E99
:1021C000A76F000EA86F000EA96F000EAA6F200E59
:1021D000AB6F800EAC6F000EAD6F210EAE6F000EB8
:1021E000AF6F000EB06F000EB16F000EB26F000E39
:1021F000B36F000E116E000E126EABEC14F0000EF9
:10220000116E000E126EA1EC14F0000E116E000E95
:10221000126EB0EC14F0000E4A6E1200155016103B
:10222000D8B415EF11F017EF11F020EF11F01550A1
:102230001610D8A41EEF11F020EF11F025EF11F0C9
:10224000135088EC14F058EF11F020EE04F0155004
:10225000D9261650DA22DE50DE10D8B432EF11F053
:1022600034EF11F04FEF11F020EE04F01550D926A5
:102270001650DA2210EE02F01550E1261650E22236
:10228000DE50E65CE650800A1B6EDE50800A1B586A
:10229000D8B04DEF11F04FEF11F058EF11F020EEE4
:1022A00002F01550D9261650DA22DE2A000EDD2261
:1022B0001200000EBE6E000EBF6E000EC06E2F0E1E
:1022C000C66E700EC76E000EC86E000E0401006F61
:1022D000000E086F000E106F000E016F000E096FE8
:1022E000000E116F000E026F000E0A6F000E126FCB
:1022F000370E036FF00E0B6F13693F0E046FF00E75
:102300000C6F14690C0E0201616F0E0E626F0D0EE0
:10231000726F050E486F100E106F000E0401056FEE
:10232000000E066F000E076F000E0D6F000E0E6F91
:10233000000E0F6F000E156F000E166F000E176F58
:102340001200D68A000ED6BE010E136ED69E550E12
:102350000401596FAA0E596F5991000E5F6F000E5C
:102360005E6F080E5D6F550E596FAA0E596F598139
:1023700013B002D0D69E01D0D68E03016A87B490E6
:10238000D680FA0E116E290E126ECEEC14F0B990B2
:10239000D682FC0E116E290E126EC9EC14F0BD909F
:1023A000D684FE0E116E290E126EC4EC14F01200CB
:1023B000C7C5CBF5C8C5CCF5000E0501796F000E79
:1023C000786FF6EF11F0C5C5B5F5C6C5B6F5CB0EFD
:1023D000B76F050EB86FC9C5B9F5CAC5BAF5A2EC95
:1023E0000CF00501B5517827B651792361002CF71F
:1023F000F6F4610030F7F7F4F86A0800F5500009C8
:10240000D8A405EF12F007EF12F0E3EF11F078C552
:10241000C5F579C5C6F51200000E0301266F000E42
:10242000276F0E0E286F24692369B7982351600027
:1024300090FC13F5146A13C514F5136A1310050103
:10244000EA6F1450EB6FAC88040E116E2A0E126EF8
:10245000B5EC14F0B79AAC8A040E0301256F120094
:10246000000E0301156F000E166F0D0E176F136926
:102470001269B698125160004CFC13F5146A13C52A
:1024800014F5136A13100501E66F1450E76FAB885B
:10249000020E116E2A0E126EBFEC14F0B69AAB8AC1
:1024A000040E0301146F1200000E226E000E216E46
:1024B00065EF12F020C513F5146A1EC515F51FC58A
:1024C00016F50EEC11F0214A222A21501C24D96E57
:1024D00022501D20DA6EDF50206E2050D8A473EFFA
:1024E00012F075EF12F05AEF12F01200080E4D6064
:1024F0007CEF12F07EEF12F095EF12F0700E4E248A
:10250000D96EDA6A050EDA22DF500201A36F4E2A75
:10251000070E4E648EEF12F090EF12F092EF12F071
:10252000000E4E6E4D2A96EF12F0AC92120024BEB1
:10253000A4EF12F0245006E12304D8B0A2EF12F069
:10254000A4EF12F0B2EF12F023C525F524C526F54D
:10255000251E261E254A262A25C523F526C524F52F
:10256000B6EF12F023C523F524C524F51200156E2D
:10257000000E146EC5EF12F0142A610044F4D9F471
:10258000610048F4DAF41550DF5E610044F4D9F4D8
:10259000610048F4DAF41550DE5CD8B0D2EF12F0E6
:1025A000D4EF12F0BCEF12F01450120048C515F52C
:1025B0001350152615BEE1EF12F0DFEF12F0E5EF34
:1025C00012F0000E156EF1EF12F01550800A1B0F7D
:1025D000D8A0EDEF12F0EFEF12F0F1EF12F0640E71
:1025E000156E15C548F5120011C513F512C514F581
:1025F000FCEF12F0114A122A610044F4D9F4610090
:1026000048F4DAF4DF50D8A408EF13F00AEF13F01F
:10261000FAEF12F01350115C116E14501258126E32
:102620001200010E0001D56F860ED66F040ED76F13
:10263000000ED86F010ED96F040EDA6F000EDB6F3B
:10264000020EDC6F080EDD6F080EDE6F000EDF6F0E
:10265000000ED46F1200000E0001D56F860ED66FEB
:10266000040ED76F000ED86F010ED96F040EDA6F0B
:10267000000EDB6F080EDC6F020EDD6F020EDE6FE8
:0A268000000EDF6F000ED46F120091
:10268C00B6960501E251E311D8B44FEF13F051EFB8
:10269C0013F05DEF13F002D85DEF13F00500FA6E46
:1026AC00E251FD6EE351FE6EFF6AFA50120011000A
:1026BC00030125A564EF13F066EF13F06FEF13F031
:1026CC0025911250246F610044F423F3258174EF9B
:1026DC0013F01250246F610044F423F31200030131
:1026EC0014A57BEF13F07DEF13F086EF13F014912C
:1026FC001250136F610044F412F314818BEF13F03A
:10270C001250136F610044F412F31200040E030113
:10271C00206F000E1F6F000E216F600E1D6F000EDC
:10272C001C6F000E116E2A0E126EBAEC14F0B696D7
:10273C00AB86400E03011E6F12000501F051F11122
:10274C00D8B4ABEF13F0ADEF13F0B9EF13F002D830
:10275C00B9EF13F00500FA6EF051FD6EF151FE6EFB
:10276C00FF6AFA50120012000501EE51EF11D8B4B5
:10277C00C2EF13F0C4EF13F0D0EF13F002D8D0EF88
:10278C0013F00500FA6EEE51FD6EEF51FE6EFF6A0E
:10279C00FA50120012000501EC51ED11D8B4D9EF2A
:1027AC0013F0DBEF13F0E7EF13F002D8E7EF13F0C1
:1027BC000500FA6EEC51FD6EED51FE6EFF6AFA509B
:1027CC001200120001EE60F1430EEE6AE806FDE124
:1027DC0001EE40F1100EEE6AE806FDE10401080E70
:1027EC005D6F000E5E6F000E5F6F000114EF0FF057
:1027FC00CF0E0501D56F050ED66F000EC56F000EFE
:10280C00C66FCDC5C7F5CEC5C8F5D50EC96F050EBB
:10281C00CA6FD8EC11F0120025EC14F0B6EC10F0E5
:10282C00A1EC11F00CEC12F08CEC13F02BEC13F07F
:10283C0011EC13F030EC12F059EC11F01200600EA8
:10284C000001AD6F700EAE6F000EAF6F000EB36F68
:10285C00080EB16F000EB26F000EB06F000EAC6FB1
:10286C00120060008CFC05F5066A03012451046E0D
:10287C00036A035005120450061205C501F506C57E
:10288C0002F51200600048FC05F5066A03011351BD
:10289C00046E036A035005120450061205C501F5B7
:1028AC0006C502F51200000E486E640E166E160E6A
:1028BC00116E050E126E160EB7EC12F00501FA6FC2
:1028CC0057EC10F01200116EB7A26FEF14F071EF0D
:1028DC0014F06AEF14F0610044F4A3F21200020148
:1028EC00B2BF7BEF14F07EEF14F0010E7FEF14F00B
:1028FC00000E1200000E05017D6F000E7C6F000EA5
:10290C00496E1200126E125069EC14F012007CC564
:10291C0011F57DC512F5120011C5F2F512C5F3F5CE
:10292C00120011C5F6F512C5F7F5120011C5F8F530
:10293C0012C5F9F5120011C5DEF512C5DFF512004E
:10294C0011C5F4F512C5F5F5120011C5E0F512C567
:10295C00E1F5120011C5DCF512C5DDF5120011C54B
:10296C00E8F512C5E9F5120011C5E2F512C5E3F55B
:10297C00120011C5E4F512C5E5F5120011C5ECF510
:10298C0012C5EDF5120011C5EEF512C5EFF51200EA
:0A299C0011C5F0F512C5F1F51200A7
:1029A800B490A3EC13F01100B990BAEC13F0110035
:1029B800BD90D1EC13F01100000E496E120075ECB9
:1029C80014F0120003012581120003011E8F12006A
:0629D8000301148112004E
:0E29E00076EC12F0110049501200485012001F
:1029F000B79A1100B69A11001100120012001200CD
:062A00001200120012009A
:020000040020DA
:10000000FF0FFF0FFF0FFF0FFF0FFF0FFF0FFF0F80
:10001000FF0FFF0FFF0FFF0FFF0FFF0FFF0FFF0F70
:020000040030CA
:0A0000008CFFFFFF9FFFFFFFFFFFD3
:00000001FF
