:020000040000FA
:040000000DEF00F010
:04000800CCEF13F036
:06001800FF007DEF13F074
:10160000006A2100001E2800000000AC28A2288EDD
:101610002800000000000000003628CC2604290025
:10162000000000C0280000A8240A2900009E26CA45
:101630002800006424FE2800007026B6280000451B
:101640006E636F6465722056616C75653A2025691A
:101650000A0D566F6C756D653A2025690A0D0000FC
:1016600030C5ABF531C5ACF532C5ADF533C5AEF51A
:1016700034C5AFF535C5B0F536C5B1F537C5B2F5EA
:101680000501B2BF46EF0BF049EF0BF0010E4AEF38
:101690000BF0000EA96FAA6BA951AA11D8B453EF91
:1016A0000BF055EF0BF065EF0BF0B21FB11FB01F41
:1016B000AF1FAE1FAD1FAC1FAB6D000EAC23AD2333
:1016C000AE23AF23B023B123B22341BE6AEF0BF0A8
:1016D0006CEF0BF06DEF0BF0429241BE7AEF0BF026
:1016E000415006E14004D8B078EF0BF07AEF0BF0F0
:1016F00080EF0BF0000EA66F010EA56F84EF0BF0CC
:1017000040C5A5F541C5A6F57AC5A7F57BC5A8F5E1
:10171000A951AA11D8A48FEF0BF091EF0BF098EF1D
:101720000BF042A496EF0BF098EF0BF09BEF0BF051
:10173000A707D8A0A807000EB46F1F0EB36F000E46
:10174000A26F20EF0CF0B307D8A0B407830EB32527
:10175000D96E050EB421DA6EABC511F5ACC512F524
:10176000ADC513F5AEC514F5AFC515F5B0C516F585
:10177000B1C517F5B2C518F50A0E196E000E1A6E2E
:10178000000E1B6E000E1C6E000E1D6E000E1E6EF7
:10179000000E1F6E000E206E62EC0EF011C538F5C3
:1017A00012C539F513C53AF514C53BF515C53CF519
:1017B00016C53DF517C53EF518C53FF538C523F5E7
:1017C0003AC524F576EC12F02350300FDF6E050198
:1017D000A507D8A0A607A707D8A0A807ABC511F5ED
:1017E000ACC512F5ADC513F5AEC514F5AFC515F50D
:1017F000B0C516F5B1C517F5B2C518F50A0E196EC4
:10180000000E1A6E000E1B6E000E1C6E000E1D6E7A
:10181000000E1E6E000E1F6E000E206E9EEC0DF070
:1018200011C5ABF512C5ACF513C5ADF514C5AEF5D4
:1018300015C5AFF516C5B0F517C5B1F518C5B2F5A4
:101840000501B4BF2CEF0CF0B45108E1B305D8A0EA
:101850002CEF0CF02EEF0CF05EEF0CF0AB51AC1156
:10186000AD11AE11AF11B011B111B211D8A43BEF4F
:101870000CF03DEF0CF0A3EF0BF0A6BF4AEF0CF01D
:10188000A65106E1A505D8B048EF0CF04AEF0CF0E0
:10189000A3EF0BF0A8BF55EF0CF0A85108E1A70586
:1018A000D8A055EF0CF057EF0CF05EEF0CF042B201
:1018B0005CEF0CF05EEF0CF0A3EF0BF0A951AA1156
:1018C000D8A465EF0CF067EF0CF06EEF0CF042A4BB
:1018D0006CEF0CF06EEF0CF08DEF0CF0B307D8A0AE
:1018E000B407A951AA11D8A478EF0CF07AEF0CF044
:1018F00080EF0CF0000EA46F2B0EA36F84EF0CF0A2
:10190000000EA46F2D0EA36F830EB325D96E050EA6
:10191000B421DA6E61008CF6DFF42EC523F52FC5F5
:1019200024F5830EB325256E050EB421266EA7C5BA
:1019300027F5A8C528F595EC0FF023C52EF524C58D
:101940002FF512006100DCF6D9F46100E0F6DAF45C
:10195000DEC4F6F4DDC4F7F4F86A0800F550250A91
:10196000D8A4B5EF0CF0B7EF0CF07DEF0DF06100EF
:10197000DCF6D9F46100E0F6DAF4DE2A000EDD22AE
:10198000000E05017B6F000E7A6F7AC542F57BC5AC
:1019900043F5406841686100DCF6D9F46100E0F687
:1019A000DAF4DEC4F6F4DDC4F7F4F86A0800F550A2
:1019B000640AD8B4DEEF0CF0E0EF0CF0F5EF0CF0B9
:1019C0006100DCF6D9F46100E0F6DAF4DEC4F6F486
:1019D000DDC4F7F4F86A0800F550690AD8A4F3EFFB
:1019E0000CF0F5EF0CF03FEF0DF06100DCF6D9F4F0
:1019F0006100E0F6DAF4DE2A000EDD226100E4F692
:101A0000D9F46100E8F6DAF461007CF3BBF5020E6C
:101A1000DE2661007CF3BCF5000EDD226100ECF6F1
:101A2000D9F46100F0F6DAF4610078F3BDF56100F5
:101A300074F3BEF5000EBEBFFF0EBF6FC06FC16F67
:101A4000C26FC36FC46FB5C52EF5B6C52FF5BDC542
:101A500030F5BEC531F5BFC532F5C0C533F5C1C5DA
:101A600034F5C2C535F5C3C536F5C4C537F530EC18
:101A70000BF02EC5B5F52FC5B6F59DEF0DF0610045
:101A8000DCF6D9F46100E0F6DAF4DEC4F6F4DDC485
:101A9000F7F4F86A0800F550250AD8A452EF0DF0C3
:101AA00054EF0DF06EEF0DF06100DCF6D9F461003B
:101AB000E0F6DAF4DE2A000EDD22000E146E250EAA
:101AC000136EB5C515F5B6C516F50DEC11F0000E83
:101AD0000501B66F010EB56F9DEF0DF06100DCF6EC
:101AE000D9F46100E0F6DAF4DE2A000EDD22000E01
:101AF000B66F000EB56F9DEF0DF06100DCF6D9F406
:101B00006100E0F6DAF4DEC4F6F4DDC4F7F4F86A56
:101B10000800F550136E146AB5C515F5B6C516F56F
:101B20000DEC11F06100DCF6D9F46100E0F6DAF4B6
:101B3000DE2A000EDD2267EF0DF01200000E226E8D
:101B400020BEA7EF0DF0A5EF0DF0B9EF0DF0201EB0
:101B50001F1E1E1E1D1E1C1E1B1E1A1E196C000E93
:101B60001A221B221C221D221E221F222022010EAD
:101B7000226E18BEC0EF0DF0BEEF0DF0D2EF0DF0EB
:101B8000181E171E161E151E141E131E121E116C73
:101B9000000E1222132214221522162217221822B6
:101BA000010E221A21EE23F1070EDE6AE806FDE29D
:101BB00019501A101B101C101D101E101F10201081
:101BC000D8B4E5EF0DF0E7EF0DF039EF0EF0010EB0
:101BD000216EF5EF0DF0D89019361A361B361C36EB
:101BE0001D361E361F362036212A20AEFAEF0DF0A4
:101BF000FCEF0DF0EBEF0DF0D890233624362536B0
:101C000026362736283629362A361950115C1A50BE
:101C100012581B5013581C5014581D5015581E5064
:101C200016581F50175820501858D8A01AEF0EF009
:101C30001CEF0EF02DEF0EF01950115E1A50125AD3
:101C40001B50135A1C50145A1D50155A1E50165A28
:101C50001F50175A2050185A2380D89020321F3214
:101C60001E321D321C321B321A321932212EFCEF69
:101C70000DF02250D8B43FEF0EF041EF0EF051EFCF
:101C80000EF02A1E291E281E271E261E251E241E73
:101C9000236C000E242225222622272228222922F4
:101CA0002A2223C511F524C512F525C513F526C52D
:101CB00014F527C515F528C516F529C517F52AC544
:101CC00018F51200000E226E18BE6BEF0EF069EFD1
:101CD0000EF07DEF0EF0181E171E161E151E141E98
:101CE000131E121E116C000E122213221422152232
:101CF000162217221822010E226E20BE84EF0EF04B
:101D000082EF0EF094EF0EF0201E1F1E1E1E1D1EF1
:101D10001C1E1B1E1A1E196C000E1A221B221C22CE
:101D20001D221E221F22202219501A101B101C10C7
:101D30001D101E101F102010D8B4A1EF0EF0A3EF3D
:101D40000EF0EBEF0EF0010E216EB1EF0EF0D89019
:101D500019361A361B361C361D361E361F362036EF
:101D6000212A20AEB6EF0EF0B8EF0EF0A7EF0EF07E
:101D70001950115C1A5012581B5013581C5014580B
:101D80001D5015581E5016581F50175820501858DF
:101D9000D8A0CDEF0EF0CFEF0EF0DFEF0EF0195020
:101DA000115E1A50125A1B50135A1C50145A1D50CF
:101DB000155A1E50165A1F50175A2050185AD890AC
:101DC00020321F321E321D321C321B321A3219329F
:101DD000212EB8EF0EF02250D8B4F1EF0EF0F3EF51
:101DE0000EF003EF0FF0181E171E161E151E141E00
:101DF000131E121E116C000E122213221422152221
:101E000016221722182211C511F512C512F513C595
:101E100013F514C514F515C515F516C516F517C532
:101E200017F518C518F51200A7EC13F026EC14F0FE
:101E3000FFEC13F003011483000E126E000E116EFE
:101E40004FEC13F085EC14F003012583000E126EA5
:101E5000000E116E38EC13F07FEC14F0EC0E116EE6
:101E60001F0E126E60EC14F082EC14F0D68E000E91
:101E70000501D96F000ED86F000EDB6F010EDA6F0F
:101E800088EC14F00009D8B448EF0FF04AEF0FF0D7
:101E900086EF0FF079EC14F033EC14F011500501DB
:101EA000D8271250D92333EC14F011C513F512C5FD
:101EB00014F59EEC11F056EC10F0140E0501DA1931
:101EC000DB11D8A466EF0FF068EF0FF084EF0FF08E
:101ED0003F0ECD6F160ECE6FD8C5CFF5D9C5D0F554
:101EE0008AEC14F00501D76FD751D16FD26B93EC08
:101EF00013F0000E0501DB6F010EDA6F000ED96FD3
:101F0000000ED86F86EF0FF0DA4BDB2B7CEC14F071
:101F10000009D8B48EEF0FF090EF0FF040EF0FF004
:101F200000F040EF0FF00DEF00F042A09AEF0FF03D
:101F30009CEF0FF0A6EF0FF025C51CF526C51DF58B
:101F400023C51EF524C51FF510EC12F028BEABEF1B
:101F50000FF0ADEF0FF0B3EF0FF027C52CF528C54C
:101F60002DF5B7EF0FF0000E2D6E000E2C6E000E4B
:101F70002B6E000E2A6EC9EF0FF0000E146E200EAD
:101F8000136E23C515F524C516F50DEC11F02A4A7C
:101F90002B2A2C502A5C2B50800A296E2D50800A47
:101FA0002958D8A0D6EF0FF0D8EF0FF0BDEF0FF003
:101FB00042B0DDEF0FF0DFEF0FF0E9EF0FF025C5D6
:101FC0001CF526C51DF523C51EF524C51FF510EC0F
:101FD00012F025C511F526C512F5B5EC12F02C50FE
:101FE0001124236E2D501220246E1200EEEC13F0FB
:101FF00001C50DF502C50EF5DDEC13F001C50FF5B9
:1020000002C510F5000E0A6E000E096E000E0C6E71
:10201000000E0B6E46500D5C47500E58D8B013EFB3
:1020200010F015EF10F01DEF10F0461C096E471C64
:102030000A6E000E476E000E466E44500F5C45500F
:102040001058D8B026EF10F028EF10F030EF10F055
:10205000441C0B6E451C0C6E000E456E000E446E4B
:1020600046500D5C076E47500E58086E0750092603
:1020700008500A2244500F5C076E45501058086EF5
:1020800007500B2608500C220B50095C05017C6F91
:102090000C500A587D6F010E496E0DC546F50EC5F0
:1020A00047F50FC544F510C545F51200000EC06E8A
:1020B000BE98BE9A4850D8B460EF10F062EF10F0AE
:1020C00063EF10F0C0800E0E486469EF10F06BEF04
:1020D00010F06CEF10F0C082180E486472EF10F030
:1020E00074EF10F075EF10F0C084220E48647BEF9F
:1020F00010F07DEF10F07EEF10F0C0862C0E4864DB
:1021000084EF10F086EF10F087EF10F0C088360EE5
:1021100048648DEF10F08FEF10F090EF10F0C08A50
:10212000400E486496EF10F098EF10F099EF10F021
:10213000C08C4A0E48649FEF10F0A1EF10F0A2EFA0
:1021400010F0C08E540E4864A8EF10F0AAEF10F003
:10215000ABEF10F0BE88630E4864B1EF10F0B3EF40
:1021600010F0B4EF10F0BE8A1200AC90000E116EA9
:10217000000E126E42EC14F0AC92000E116E000EC6
:10218000126E3DEC14F0AC94000E116E000E126E47
:102190004CEC14F0AC96000E116E000E126E38EC82
:1021A00014F0000E0201A16F000EA26F000EA36FCB
:1021B000000EA46F000EA56F000EA66F000EA76F95
:1021C000000EA86F000EA96F000EAA6FA00EAB6FD5
:1021D000800EAC6F000EAD6F890EAE6F000EAF6F4C
:1021E000000EB06F000EB16F000EB26F000EB36F35
:1021F000000E116E000E126E51EC14F0000E116EF6
:10220000000E126E47EC14F0000E116E000E126EEE
:1022100056EC14F0000E4A6E120015501610D8B489
:1022200014EF11F016EF11F01FEF11F0155016100A
:10223000D8A41DEF11F01FEF11F024EF11F013508F
:102240002EEC14F057EF11F020EE04F01550D926C3
:102250001650DA22DE50DE10D8B431EF11F033EF31
:1022600011F04EEF11F020EE04F01550D926165063
:10227000DA2210EE02F01550E1261650E222DE506E
:10228000E65CE650800A1B6EDE50800A1B58D8B010
:102290004CEF11F04EEF11F057EF11F020EE02F07D
:1022A0001550D9261650DA22DE2A000EDD22120041
:1022B000000EBE6E000EBF6E000EC06E0F0EC66E1C
:1022C000700EC76E000EC86E000E0401006F000E87
:1022D000086F000E106F000E016F000E096F000EE8
:1022E000116F000E026F000E0A6F000E126F370E94
:1022F000036FF00E0B6F13693F0E046FF00E0C6F3F
:1023000014690C0E0201616F0E0E626F0D0E726F7A
:10231000100E106F000E0401056F000E066F000E08
:10232000076F000E0D6F000E0E6F000E0F6F000E88
:10233000156F000E166F000E176F120048C517F5C7
:10234000186A14BEA6EF11F0A8EF11F0AEEF11F06D
:1023500013501726000E1822BAEF11F013C515F509
:1023600014C516F5151E161E154A162A1550175EA9
:10237000000E185A18BEC1EF11F0BFEF11F0C7EFF1
:1023800011F0000E186E000E176ED9EF11F018BE86
:10239000D3EF11F0185009E1650E175CD8A0D3EF08
:1023A00011F0D5EF11F0D9EF11F0000E186E640E98
:1023B000176E17C548F51200C7C5CBF5C8C5CCF5D3
:1023C000000E0501796F000E786FFAEF11F0C5C5A8
:1023D000B5F5C6C5B6F5CB0EB76F050EB86FC9C556
:1023E000B9F5CAC5BAF5A2EC0CF00501B5517827CC
:1023F000B651792361002CF7F6F4610030F7F7F459
:10240000F86A0800F5500009D8A409EF12F00BEFA4
:1024100012F0E7EF11F078C5C5F579C5C6F51200E1
:10242000000E226E000E216E21EF12F020C513F572
:10243000146A1EC515F51FC516F50DEC11F0214ADD
:10244000222A21501C24D96E22501D20DA6EDF5022
:10245000206E2050D8A42FEF12F031EF12F016EFBB
:1024600012F01200000E0301266F000E276F0E0EF1
:10247000286F246923692351600090FC13F5146AC6
:1024800013C514F5136A13100501EA6F1450EB6FAE
:102490001C0E116E290E126E5BEC14F0B798B79AF1
:1024A000040E0301256F1200000E0301156F000ECC
:1024B000166F0D0E176F13691269125160004CFCF4
:1024C00013F5146A13C514F5136A13100501E66FAA
:1024D0001450E76F1A0E116E290E126E65EC14F08F
:1024E000B698B69A040E0301146F120024BE83EF4F
:1024F00012F0245006E12304D8B081EF12F083EFEC
:1025000012F091EF12F023C525F524C526F5251EFE
:10251000261E254A262A25C523F526C524F595EF2E
:1025200012F023C523F524C524F51200156E000E04
:10253000146EA4EF12F0142A610044F4D9F461007F
:1025400048F4DAF41550DF5E610044F4D9F4610018
:1025500048F4DAF41550DE5CD8B0B1EF12F0B3EF06
:1025600012F09BEF12F01450120011C513F512C5B2
:1025700014F5BDEF12F0114A122A610044F4D9F4A7
:10258000610048F4DAF4DF50D8A4C9EF12F0CBEFC1
:1025900012F0BBEF12F01350115C116E1450125870
:1025A000126E1200D69AB490D680000E116E000EF4
:1025B000126E74EC14F0B990D682000E116E000EFB
:1025C000126E6FEC14F0BD90D684000E116E000EEA
:1025D000126E6AEC14F01200010E0001D56F040EA9
:1025E000D76F000ED86F010ED96F040EDA6F000E90
:1025F000DB6F020EDC6F080EDD6F080EDE6F000E63
:10260000DF6F000ED46F860ED66F1200000E000131
:10261000D56F040ED76F000ED86F010ED96F040E60
:10262000DA6F000EDB6F080EDC6F020EDD6F020E3C
:10263000DE6F000EDF6F000ED46F860ED66F1200B5
:10264000B6960501E251E311D8B429EF13F02BEF50
:1026500013F037EF13F002D837EF13F00500FA6EDE
:10266000E251FD6EE351FE6EFF6AFA501200120055
:10267000030125A53EEF13F040EF13F049EF13F0EF
:1026800025911250246F610044F423F325814EEF0D
:1026900013F01250246F610044F423F3120003017D
:1026A00014A555EF13F057EF13F060EF13F01491EA
:1026B0001250136F610044F412F3148165EF13F0AC
:1026C0001250136F610044F412F31200040E030160
:1026D000206F000E1F6F000E216F600E1D6F000E29
:1026E0001C6F180E116E290E126E60EC14F0B69667
:1026F000AB86C00E03011E6F120001EE60F1430EA7
:10270000EE6AE806FDE101EE40F1100EEE6AE80621
:10271000FDE10401080E5D6F000E5E6F000E5F6F3D
:10272000000114EF0FF0CF0E0501D56F050ED66F27
:10273000000EC56F000EC66FCDC5C7F5CEC5C8F576
:10274000D50EC96F050ECA6FDCEC11F01200BAECA1
:1027500013F0B5EC10F0D2EC12F032EC12F066ECA3
:1027600013F006EC13F0ECEC12F054EC12F058EC11
:1027700011F01200600E0001AD6F700EAE6F000E12
:10278000AF6F000EB36F080EB16F000EB26F000E88
:10279000B06F000EAC6F1200ABA6D1EF13F0D3EF09
:1027A00013F0DCEF13F0B6A6D8EF13F0DAEF13F066
:1027B000DCEF13F020EC13F0110060008CFC05F549
:1027C000066A03012451046E036A03500512045083
:1027D000061205C501F506C502F51200600048FCA9
:1027E00005F5066A03011351046E036A03500512CE
:1027F0000450061205C501F506C502F51200000ECB
:10280000486E640E166E160E116E050E126E160EC2
:1028100096EC12F00501FA6F56EC10F01200116EF2
:10282000B7A215EF14F017EF14F010EF14F06100D9
:1028300044F4A3F212000201B2BF21EF14F024EF1E
:1028400014F0010E25EF14F0000E1200000E050129
:102850007D6F000E7C6F000E496E1200126E1250DA
:102860000FEC14F012007CC511F57DC512F51200B5
:1028700011C5F2F512C5F3F5120011C5F6F512C532
:10288000F7F5120011C5F8F512C5F9F5120011C5DA
:10289000DEF512C5DFF5120011C5F4F512C5F5F528
:1028A000120011C5E0F512C5E1F5120011C5DCF505
:1028B00012C5DDF5120011C5E8F512C5E9F51200E3
:1028C00011C5E2F512C5E3F5120011C5E4F512C514
:1028D000E5F5120011C5ECF512C5EDF5120011C5B4
:1028E000EEF512C5EFF5120011C5F0F512C5F1F5C0
:1028F0001200000E496E12001BEC14F012000301CE
:102900002581120003011E8F1200030114811200A1
:0E29100049501200485012001200120012002E
:020000040020DA
:10000000FF0FFF0FFF0FFF0FFF0FFF0FFF0FFF0F80
:10001000FF0FFF0FFF0FFF0FFF0FFF0FFF0FFF0F70
:020000040030CA
:0A0000008CFFF7FF9FFFFFFFFFFFDB
:00000001FF
