:020000040000FA
:040000000DEF00F010
:04000800F5EF11F00F
:06001800FF008CEF13F065
:1016000000456E636F6465722056616C75653A20A3
:1016100025690A0D566F6C756D653A2025690A0DAE
:10162000000032C570F533C571F534C572F535C5A6
:1016300073F536C574F537C575F538C576F539C512
:1016400077F5050177BF27EF0BF02AEF0BF0010EBE
:101650002BEF0BF0000E6E6F6F6B6E516F11D8B4E5
:1016600034EF0BF036EF0BF046EF0BF0771F761FE1
:10167000751F741F731F721F711F706D000E712311
:101680007223732374237523762377233EBE4BEF97
:101690000BF04DEF0BF04EEF0BF03F923EBE5BEFC9
:1016A0000BF03E5006E13D04D8B059EF0BF05BEF74
:1016B0000BF061EF0BF0000E6B6F010E6A6F65EFC0
:1016C0000BF03DC56AF53EC56BF53BC56CF53CC5F9
:1016D0006DF56E516F11D8A470EF0BF072EF0BF037
:1016E00079EF0BF03FA477EF0BF079EF0BF07CEF85
:1016F0000BF06C07D8A06D07000E796F1F0E786F86
:10170000000EC96F01EF0CF07807D8A07907AA0E78
:101710007825D96E050E7921DA6E70C513F571C57D
:1017200014F572C515F573C516F574C517F575C5AD
:1017300018F576C519F577C51AF50A0E1B6E000E59
:101740001C6E000E1D6E000E1E6E000E1F6E000E33
:10175000206E000E216E000E226E44EC0EF013C5BA
:1017600060F514C561F515C562F516C563F517C5B5
:1017700064F518C565F519C566F51AC567F560C540
:1017800025F562C526F593EC12F02550300FDF6E7B
:1017900005016A07D8A06B076C07D8A06D0770C554
:1017A00013F571C514F572C515F573C516F574C535
:1017B00017F575C518F576C519F577C51AF50A0E2A
:1017C0001B6E000E1C6E000E1D6E000E1E6E000EB7
:1017D0001F6E000E206E000E216E000E226E80EC39
:1017E0000DF013C570F514C571F515C572F516C564
:1017F00073F517C574F518C575F519C576F51AC5CD
:1018000077F5050179BF0DEF0CF0795108E1780506
:10181000D8A00DEF0CF00FEF0CF03FEF0CF0705173
:101820007111721173117411751176117711D8A499
:101830001CEF0CF01EEF0CF084EF0BF06BBF2BEFE6
:101840000CF06B5106E16A05D8B029EF0CF02BEFD4
:101850000CF084EF0BF06DBF36EF0CF06D5108E12A
:101860006C05D8A036EF0CF038EF0CF03FEF0CF021
:101870003FB23DEF0CF03FEF0CF084EF0BF06E51F8
:101880006F11D8A446EF0CF048EF0CF04FEF0CF0BE
:101890003FA44DEF0CF04FEF0CF06EEF0CF078071B
:1018A000D8A079076E516F11D8A459EF0CF05BEFF7
:1018B0000CF061EF0CF0000E696F2B0E686F65EF96
:1018C0000CF0000E696F2D0E686FAA0E7825D96E88
:1018D000050E7921DA6E6100A0F5DFF430C525F53B
:1018E00031C526F5AA0E7825276E050E7921286EBA
:1018F0006CC529F56DC52AF5E3EC0FF025C530F56B
:1019000026C531F512006100F0F5D9F46100F4F557
:10191000DAF4DEC4F6F4DDC4F7F4F86A0800F55032
:10192000250AD8A496EF0CF098EF0CF05FEF0DF0BD
:101930006100F0F5D9F46100F4F5DAF4DE2A000E66
:10194000DD22000E3C6E000E3B6E3BC53FF53CC5F4
:1019500040F53D683E686100F0F5D9F46100F4F5AA
:10196000DAF4DEC4F6F4DDC4F7F4F86A0800F550E2
:10197000640AD8B4BEEF0CF0C0EF0CF0D5EF0CF059
:101980006100F0F5D9F46100F4F5DAF4DEC4F6F4A0
:10199000DDC4F7F4F86A0800F550690AD8A4D3EF5B
:1019A0000CF0D5EF0CF020EF0DF06100F0F5D9F45C
:1019B0006100F4F5DAF4DE2A000EDD226100F8F5AC
:1019C000D9F46100FCF5DAF461007CF380F5020ED5
:1019D000DE2661007CF381F5000EDD22610000F659
:1019E000D9F4610004F6DAF4610078F382F561005D
:1019F00074F383F50501000E83BFFF0E846F856FBE
:101A0000866F876F886F896F7AC530F57BC531F532
:101A100082C532F583C533F584C534F585C535F502
:101A200086C536F587C537F588C538F589C539F5D2
:101A300011EC0BF030C57AF531C57BF57FEF0DF079
:101A40006100F0F5D9F46100F4F5DAF4DEC4F6F4DF
:101A5000DDC4F7F4F86A0800F550250AD8A433EF7E
:101A60000DF035EF0DF04FEF0DF06100F0F5D9F40A
:101A70006100F4F5DAF4DE2A000EDD22000E166EA7
:101A8000250E156E7AC517F57BC518F502EC11F019
:101A9000000E05017B6F010E7A6F7FEF0DF0610084
:101AA000F0F5D9F46100F4F5DAF4DE2A000EDD2257
:101AB000000E05017B6F000E7A6F7FEF0DF0610065
:101AC000F0F5D9F46100F4F5DAF4DEC4F6F4DDC41F
:101AD000F7F4F86A0800F550156E166A7AC517F51E
:101AE0007BC518F502EC11F06100F0F5D9F4610046
:101AF000F4F5DAF4DE2A000EDD2248EF0DF01200D4
:101B0000000E246E22BE89EF0DF087EF0DF09BEFE3
:101B10000DF0221E211E201E1F1E1E1E1D1E1C1E1D
:101B20001B6C000E1C221D221E221F22202221229D
:101B30002222010E246E1ABEA2EF0DF0A0EF0DF0CE
:101B4000B4EF0DF01A1E191E181E171E161E151EB4
:101B5000141E136C000E14221522162217221822AE
:101B600019221A22010E241A21EE25F1070EDE6A2F
:101B7000E806FDE21B501C101D101E101F10201047
:101B800021102210D8B4C7EF0DF0C9EF0DF01BEFF4
:101B90000EF0010E236ED7EF0DF0D8901B361C36D9
:101BA0001D361E361F36203621362236232A22AE17
:101BB000DCEF0DF0DEEF0DF0CDEF0DF0D890253617
:101BC00026362736283629362A362B362C361B5011
:101BD000135C1C5014581D5015581E5016581F5099
:101BE0001758205018582150195822501A58D8A068
:101BF000FCEF0DF0FEEF0DF00FEF0EF01B50135E3B
:101C00001C50145A1D50155A1E50165A1F50175A60
:101C10002050185A2150195A22501A5A2580D8900B
:101C20002232213220321F321E321D321C321B3230
:101C3000232EDEEF0DF02450D8B421EF0EF023EF69
:101C40000EF033EF0EF02C1E2B1E2A1E291E281E0E
:101C5000271E261E256C000E262227222822292236
:101C60002A222B222C2225C513F526C514F527C5BB
:101C700015F528C516F529C517F52AC518F52BC57C
:101C800019F52CC51AF51200000E246E1ABE4DEF80
:101C90000EF04BEF0EF05FEF0EF01A1E191E181E1D
:101CA000171E161E151E141E136C000E142215226C
:101CB00016221722182219221A22010E246E22BE81
:101CC00066EF0EF064EF0EF076EF0EF0221E211E8E
:101CD000201E1F1E1E1E1D1E1C1E1B6C000E1C2205
:101CE0001D221E221F222022212222221B501C10D4
:101CF0001D101E101F10201021102210D8B483EFC9
:101D00000EF085EF0EF0CDEF0EF0010E236E93EF87
:101D10000EF0D8901B361C361D361E361F36203668
:101D200021362236232A22AE98EF0EF09AEF0EF0DB
:101D300089EF0EF01B50135C1C5014581D501558A1
:101D40001E5016581F501758205018582150195817
:101D500022501A58D8A0AFEF0EF0B1EF0EF0C1EF3D
:101D60000EF01B50135E1C50145A1D50155A1E5075
:101D7000165A1F50175A2050185A2150195A2250DB
:101D80001A5AD8902232213220321F321E321D328E
:101D90001C321B32232E9AEF0EF02450D8B4D3EF0E
:101DA0000EF0D5EF0EF0E5EF0EF01A1E191E181EFC
:101DB000171E161E151E141E136C000E142215225B
:101DC00016221722182219221A2213C513F514C538
:101DD00014F515C515F516C516F517C517F518C56B
:101DE00018F519C519F51AC51AF5120047C519F5E0
:101DF0004C501502F35019261950800A1C0FD8B008
:101E000004EF0FF006EF0FF02EEF0FF016BE11EFFC
:101E10000FF0165008E11504D8A011EF0FF013EFE2
:101E20000FF02EEF0FF04C5019C517F5186A17BEBA
:101E300018061726000E182218BE28EF0FF01850AB
:101E400009E1640E175CD8A028EF0FF02AEF0FF01D
:101E50002EEF0FF0640E196E57EF0FF01950800A35
:101E60007F0FD8A036EF0FF038EF0FF057EF0FF0DD
:101E700016BE3FEF0FF03DEF0FF057EF0FF04C5055
:101E800019C517F5186A17BE1806175E000E185AFE
:101E900018BE55EF0FF0185006E11704D8B053EFF5
:101EA0000FF055EF0FF057EF0FF0000E196E19BE3F
:101EB0005EEF0FF05CEF0FF062EF0FF0000E196EA7
:101EC0006EEF0FF01950800A1B0FD8A06AEF0FF0C9
:101ED0006CEF0FF06EEF0FF0640E196E19C547F539
:101EE0001200A2EC13F027EC14F0F1EC13F05DEC0F
:101EF00014F054EC14F0460E136E210E146E4CECDC
:101F000014F057EC14F0D68E000E05019D6F000EF4
:101F10009C6F000E9F6F010E9E6F60EC14F0000925
:101F2000D8B495EF0FF097EF0FF0D3EF0FF051EC1F
:101F300014F033EC14F0135005019C2714509D232A
:101F400033EC14F013C515F514C516F5F6EC0EF0C8
:101F500044EC10F0140E05019E199F11D8A4B3EFA4
:101F60000FF0B5EF0FF0D1EF0FF0010E926F160EDC
:101F7000936F9CC594F59DC595F562EC14F03A6E8F
:101F80003A500501966F976BB7EC13F0000E050100
:101F90009F6F010E9E6F000E9D6F000E9C6FD3EF22
:101FA0000FF09E4B9F2B1CEC14F00009D8B4DBEF14
:101FB0000FF0DDEF0FF08DEF0FF0030000F08DEF6D
:101FC0000FF00DEF00F03FA0E8EF0FF0EAEF0FF099
:101FD000F4EF0FF027C51EF528C51FF525C520F520
:101FE00026C521F550EC12F02ABEF9EF0FF0FBEFF9
:101FF0000FF001EF10F029C52EF52AC52FF505EFDA
:1020000010F0000E2F6E000E2E6E000E2D6E000EC4
:102010002C6E17EF10F0000E166E200E156E25C5F3
:1020200017F526C518F502EC11F02C4A2D2A2E5072
:102030002C5C2D50800A2B6E2F50800A2B58D8A074
:1020400024EF10F026EF10F00BEF10F03FB02BEF65
:1020500010F02DEF10F037EF10F027C51EF528C552
:102060001FF525C520F526C521F550EC12F027C532
:1020700013F528C514F5D2EC12F02E501324256E5A
:102080002F501420266E1200000EC06EBE98BE9A0D
:102090004750D8B44EEF10F050EF10F051EF10F061
:1020A000C0800E0E476457EF10F059EF10F05AEF52
:1020B00010F0C082180E476460EF10F062EF10F06D
:1020C00063EF10F0C084220E476469EF10F06BEFED
:1020D00010F06CEF10F0C0862C0E476472EF10F019
:1020E00074EF10F075EF10F0C088360E47647BEF88
:1020F00010F07DEF10F07EEF10F0C08A400E4764C4
:1021000084EF10F086EF10F087EF10F0C08C4A0ECD
:1021100047648DEF10F08FEF10F090EF10F0C08E4D
:10212000540E476496EF10F098EF10F099EF10F00E
:10213000BE88630E47649FEF10F0A1EF10F0A2EF8E
:1021400010F0BE8A1200DEEC13F001C50FF502C5D7
:1021500010F5CBEC13F001C511F502C512F5000E18
:102160000C6E000E0B6E000E0E6E000E0D6E4350C8
:102170000F5C44501058D8B0C0EF10F0C2EF10F010
:10218000CAEF10F0431C0B6E441C0C6E000E446E24
:10219000000E436E4150115C42501258D8B0D3EF3C
:1021A00010F0D5EF10F0DDEF10F0411C0D6E421C69
:1021B0000E6E000E426E000E416E43500F5C096EB3
:1021C000445010580A6E09500B260A500C224150F8
:1021D000115C096E425012580A6E09500D260A50C1
:1021E0000E220D500B5C456E0E500C58466E010EC3
:1021F000486E0FC543F510C544F511C541F512C52C
:1022000042F5120017501810D8B409EF11F00BEF77
:1022100011F014EF11F017501810D8A412EF11F0AC
:1022200014EF11F019EF11F015502EEC14F04CEFE3
:1022300011F020EE04F01750D9261850DA22DE50A3
:10224000DE10D8B426EF11F028EF11F043EF11F0B3
:1022500020EE04F01750D9261850DA2210EE02F0C2
:102260001750E1261850E222DE50E65CE650800A64
:102270001D6EDE50800A1D58D8B041EF11F043EFBB
:1022800011F04CEF11F020EE02F01750D926185043
:10229000DA22DE2A000EDD221200AC92E40E136E6A
:1022A000240E146E38EC14F0000E0201A56F000E1F
:1022B000A66F000EA76F000EA86F000EA96F000E8C
:1022C000AA6FB00EAB6F800EAC6F000EAD6F220E1A
:1022D000AE6F000EAF6F000EB06F000EB16F000E4C
:1022E000B26F000EB36F000E136E000E146E42EC50
:1022F00014F0000E136E000E146E3DEC14F0000E80
:10230000136E000E146E47EC14F0000E496E000EB2
:102310004B6E000E4A6E080E4D6E12008CC590F585
:102320008DC591F5000E0501A96F000EA86FACEFE9
:1023300011F08AC57AF58BC57BF5900E7C6F050E82
:102340007D6F8EC57EF58FC57FF583EC0CF00501A2
:102350007A51A8277B51A923610040F6F6F4610069
:1023600044F6F7F4F86A0800F5500009D8A4BBEF6A
:1023700011F0BDEF11F099EF11F0A8C58AF5A9C5CC
:102380008BF51200000EBE6E000EBF6E000EC06E0A
:102390000F0EC66E700EC76E000EC86E000E0401E2
:1023A000106F800E086F070E006F000E096F000E91
:1023B000016F000E116F000E026F000E0A6F000E0B
:1023C000126F370E036FF00E0B6F13693F0E046F21
:1023D000F00E0C6F14690C0E0201616F100E106F7D
:1023E0000E0E626F0D0E726F1200ACA2FAEF11F0BA
:1023F000FCEF11F012EF12F0B7A201EF12F003EFB1
:1024000012F012EF12F002D810EF12F00500FA6E7F
:102410000501D651FD6ED751FE6EFF6AFA501200CB
:1024200022EF12F0ABA617EF12F019EF12F022EF25
:1024300012F0B6A61EEF12F020EF12F022EF12F00B
:102440005DEC13F01100136E4D50D8B42AEF12F06A
:102450002CEF12F024EF12F0ACB231EF12F033EFA8
:1024600012F038EF12F061004CF4A3F24EEF12F0CC
:10247000AC92A00E4B24D96EDA6A050EDA22610006
:102480004CF4DFF44B2A070E4B6449EF12F04BEF8C
:1024900012F04DEF12F0000E4B6E4D06AC821200A2
:1024A000000E246E000E236E61EF12F022C515F5AA
:1024B000166A20C517F521C518F502EC11F0234A5C
:1024C000242A23501E24D96E24501F20DA6EDF5098
:1024D000226E2250D8A46FEF12F071EF12F056EF77
:1024E00012F01200080E4D6078EF12F07AEF12F041
:1024F00091EF12F0A00E4A24D96EDA6A050EDA22A4
:10250000DF500201A36F4A2A070E4A648AEF12F0D5
:102510008CEF12F08EEF12F0000E4A6E4D2A92EF01
:1025200012F0AC92120026BEA0EF12F0265006E187
:102530002504D8B09EEF12F0A0EF12F0AEEF12F02B
:1025400025C527F526C528F5271E281E274A282A2F
:1025500027C525F528C526F5B2EF12F025C525F5C6
:1025600026C526F51200176E000E166EC1EF12F08A
:10257000162A61004CF4D9F4610050F4DAF41750D3
:10258000DF5E61004CF4D9F4610050F4DAF41750C6
:10259000DE5CD8B0CEEF12F0D0EF12F0B8EF12F050
:1025A0001650120013C515F514C516F5DAEF12F022
:1025B000134A142A61004CF4D9F4610050F4DAF49F
:1025C000DF50D8A4E6EF12F0E8EF12F0D8EF12F0E7
:1025D0001550135C136E16501458146E1200000E32
:1025E0000301266F000E276F0E0E286F000E246F5A
:1025F000000E236FB7982351600090FC13F5146A06
:1026000013C514F5136A13100501D46F1450D56F58
:10261000070E0301256F1200000E0301156F000E57
:10262000166F0D0E176F000E136F000E126FB69817
:10263000125160004CFC13F5146A13C514F5136AAB
:1026400013100501D26F1450D36F070E0301146FDE
:102650001200010E0001D56F040ED76F010ED86F66
:10266000000ED96F000EDA6F000EDB6F020EDC6F0A
:10267000080EDD6F080EDE6F000EDF6F000ED46FE8
:10268000860ED66F1200000E0001D56F040ED76FB4
:10269000000ED86F010ED96F000EDA6F000EDB6FDF
:1026A000020EDC6F080EDD6F080EDE6F000EDF6FAE
:1026B000000ED46F860ED66F1200B6960501D0516B
:1026C000D111D8B466EF13F068EF13F074EF13F084
:1026D00002D874EF13F00500FA6ED051FD6ED1519F
:1026E000FE6EFF6AFA5012001200040E0301206F02
:1026F000000E1F6F000E216F0B0E1D6F000E1C6F62
:10270000B696AB86CC0E136E280E146E4CEC14F0FD
:10271000F00E03011E6F120001EEA0F12A0EEE6A08
:10272000E806FDE101EE3BF1110EEE6AE806FDE17F
:102730000401080E5D6F000E5E6F000E5F6F0001FA
:1027400071EF0FF064EC14F000EC14F0C2EC11F037
:102750000EEC14F043EC13F0EFEC12F029EC13F054
:1027600075EC13F00CEC13F04DEC11F01200940E1C
:1027700005019A6F050E9B6F000E8A6F000E8B6F1E
:1027800092C58CF593C58DF59A0E8E6F050E8F6FE1
:102790008EEC11F012000301258360008CFC08F51B
:1027A000600090FC07F50750036E0850056E03C5E6
:1027B00006F505C501F506C502F5120003011483EF
:1027C000600048FC08F560004CFC07F50750036EFC
:1027D0000850056E03C506F505C501F506C502F5E9
:1027E0001200000E476E640E186E180E136E050E62
:1027F000146E160EB3EC12F04C6E44EC10F0120096
:10280000000E0001636F000E646F000E656F000E16
:10281000666F000E676F000E686F1200600E000199
:10282000AD6F000EAF6F000EB36F050EB16F000EEF
:10283000B06F000EAC6F12000201B2BF22EF14F0B5
:1028400025EF14F0010E26EF14F0000E1200000E1A
:10285000466E000E456E000E486E1200146E145047
:1028600023EC12F0120045C513F546C514F512000D
:1028700013C5D6F514C5D7F5120013C5CCF514C58C
:10288000CDF5120013C5CEF514C5CFF5120013C552
:10289000CAF514C5CBF5120013C5D0F514C5D1F592
:1028A0001200000E486E12000301258112005AEC3E
:1028B00014F0120003011E8F120003011481120094
:0E28C0004850120047501200D69A1200120023
:020000040020DA
:10000000FF0FFF0FFF0FFF0FFF0FFF0FFF0FFF0F80
:10001000FF0FFF0FFF0FFF0FFF0FFF0FFF0FFF0F70
:020000040030CA
:0A000000ECFFF7FF9FFFFFFFFFFF7B
:00000001FF
