:040000000DEF00F010
:040008004CEF11F0B8
:06001800FF0095EF12F05D
:1016000000D02000000000262700005625BA260042
:1016100000000000000000000000000000000000CA
:10162000000000000000000000822666264A260016
:10163000003023402700000000FE260000FC243A72
:101640002700000000F4260000EA223427000000F2
:1016500000EA260000456E636F6465722056616C77
:1016600075653A2025690A0D566F6C756D653A20CF
:1016700025690A0D000032C56EF533C56FF534C516
:1016800070F535C571F536C572F537C573F538C5D2
:1016900074F539C575F5050175BF51EF0BF054EFC1
:1016A0000BF0010E55EF0BF0000E766F7651D8B4AB
:1016B0005CEF0BF05EEF0BF06EEF0BF0751F741F1D
:1016C000731F721F711F701F6F1F6E6D000E6F23CF
:1016D000702371237223732374237523A1BF7BEFBF
:1016E0000BF0A15106E1A005D8B079EF0BF07BEF2C
:1016F0000BF081EF0BF0000E6B6F010E6A6F85EF40
:101700000BF0A0C56AF5A1C56BF59EC56CF59FC52C
:101710006DF57651D8B48FEF0BF091EF0BF0A8EF89
:101720000BF06C07D8A06D077651D8A49AEF0BF098
:101730009CEF0BF0A2EF0BF0000E696F2B0E686FA1
:10174000A6EF0BF0000E696F2D0E686F68C576F579
:10175000000E786F1F0E776F000ECB6F2DEF0CF021
:101760007707D8A07807AC0E7725D96E050E7821BB
:10177000DA6E6EC513F56FC514F570C515F571C534
:1017800016F572C517F573C518F574C519F575C545
:101790001AF50A0E1B6E000E1C6E000E1D6E000E5A
:1017A0001E6E000E1F6E000E206E000E216E000ECB
:1017B000226E3FEC0DF013C560F514C561F515C53B
:1017C00062F516C563F517C564F518C565F519C545
:1017D00066F51AC567F560C525F561C526F5DDEC2A
:1017E00011F02550300FDF6E05016A07D8A06B0796
:1017F0006C07D8A06D076EC513F56FC514F570C5DD
:1018000015F571C516F572C517F573C518F574C5CC
:1018100019F575C51AF50A0E1B6E000E1C6E000E2A
:101820001D6E000E1E6E000E1F6E000E206E000E4E
:10183000216E000E226E7BEC0CF013C56EF514C504
:101840006FF515C570F516C571F517C572F518C594
:1018500073F519C574F51AC575F5050178BF39EF2B
:101860000CF0785108E17705D8A039EF0CF03BEF88
:101870000CF057EF0CF06E516F1170117111721165
:10188000731174117511D8A448EF0CF04AEF0CF0E5
:10189000B0EF0BF06BBF57EF0CF06B5106E16A0530
:1018A000D8B055EF0CF057EF0CF0B0EF0BF07651CD
:1018B000D8B45DEF0CF05FEF0CF06AEF0CF0770737
:1018C000D8A07807AC0E7725D96E050E7821DA6E90
:1018D00076C5DFF430C525F531C526F5AC0E772584
:1018E000276E050E7821286E6CC529F56DC52AF581
:1018F000E5EC10F01200000E246E22BE84EF0CF016
:1019000082EF0CF096EF0CF0221E211E201E1F1EEF
:101910001E1E1D1E1C1E1B6C000E1C221D221E22C4
:101920001F22202221222222010E246E1ABE9DEFA8
:101930000CF09BEF0CF0AFEF0CF01A1E191E181EE6
:10194000171E161E151E141E136C000E14221522CF
:1019500016221722182219221A22010E241A21EE09
:1019600025F1070EDE6AE806FDE21B501C101D1073
:101970001E101F10201021102210D8B4C2EF0CF03E
:10198000C4EF0CF016EF0DF0010E236ED2EF0CF049
:10199000D8901B361C361D361E361F362036213693
:1019A0002236232A22AED7EF0CF0D9EF0CF0C8EF85
:1019B0000CF0D890253626362736283629362A3692
:1019C0002B362C361B50135C1C5014581D501558C8
:1019D0001E5016581F50175820501858215019588B
:1019E00022501A58D8A0F7EF0CF0F9EF0CF00AEFDC
:1019F0000DF01B50135E1C50145A1D50155A1E50EA
:101A0000165A1F50175A2050185A2150195A22504E
:101A10001A5A2580D8902232213220321F321E32AB
:101A20001D321C321B32232ED9EF0CF02450D8B4B7
:101A30001CEF0DF01EEF0DF02EEF0DF02C1E2B1EE7
:101A40002A1E291E281E271E261E256C000E262251
:101A50002722282229222A222B222C2225C513F5CF
:101A600026C514F527C515F528C516F529C517F59A
:101A70002AC518F52BC519F52CC51AF51200000E4C
:101A8000246E1ABE48EF0DF046EF0DF05AEF0DF040
:101A90001A1E191E181E171E161E151E141E136C54
:101AA000000E1422152216221722182219221A2299
:101AB000010E246E22BE61EF0DF05FEF0DF071EFAD
:101AC0000DF0221E211E201E1F1E1E1E1D1E1C1E6E
:101AD0001B6C000E1C221D221E221F2220222122EE
:101AE00022221B501C101D101E101F102010211030
:101AF0002210D8B47EEF0DF080EF0DF0C8EF0DF09E
:101B0000010E236E8EEF0DF0D8901B361C361D365D
:101B10001E361F36203621362236232A22AE93EF78
:101B20000DF095EF0DF084EF0DF01B50135C1C5081
:101B300014581D5015581E5016581F501758205035
:101B400018582150195822501A58D8A0AAEF0DF051
:101B5000ACEF0DF0BCEF0DF01B50135E1C50145A8F
:101B60001D50155A1E50165A1F50175A2050185AF9
:101B70002150195A22501A5AD8902232213220323A
:101B80001F321E321D321C321B32232E95EF0DF0F8
:101B90002450D8B4CEEF0DF0D0EF0DF0E0EF0DF003
:101BA0001A1E191E181E171E161E151E141E136C43
:101BB000000E1422152216221722182219221A2288
:101BC00013C513F514C514F515C515F516C516F589
:101BD00017C517F518C518F519C519F51AC51AF559
:101BE00012007BC5D9F47CC5DAF4DEC4F6F4DDC49A
:101BF000F7F4F86A0800F550250AD8A402EF0EF0B1
:101C000004EF0EF086EF0EF07BC5D9F47CC5DAF454
:101C1000DE2A000EDD22000E05019F6F000E9E6F72
:101C20009EC54AF5A069A1697BC5D9F47CC5DAF4E3
:101C3000DEC487F5DDC488F587C5F6F488C5F7F4FA
:101C4000F86A0800F550640AD8B429EF0EF02BEFBB
:101C50000EF03AEF0EF087C5F6F488C5F7F4F86A8F
:101C60000800F550690AD8A438EF0EF03AEF0EF0EC
:101C70007DEF0EF07DC5D9F47EC5DAF4DFC43AF508
:101C8000020EDE26DFC43BF5000EDD223AC5D9F494
:101C90003BC5DAF4DEC47FF5DDC480F5000E80BFFD
:101CA000FF0E816F826F836F846F856F866F010E69
:101CB00087253A6E000E88213B6E7BC5D9F47CC522
:101CC000DAF43AC5DEF43BC5DDF479C530F57AC502
:101CD00031F57FC532F580C533F581C534F582C550
:101CE00035F583C536F584C537F585C538F586C520
:101CF00039F53BEC0BF09BEF0EF07BC5D9F47CC5BE
:101D0000DAF4DE2A000EDD229BEF0EF07BC5D9F45B
:101D10007CC5DAF4DEC4F6F4DDC4F7F4F86A080032
:101D2000F550156E166A79C517F57AC518F51DECCC
:101D300010F07DEF0EF01200D4EC12F068EC13F00E
:101D400016EC13F0A0EC13F09AEC13F01C0E136ECB
:101D50001E0E146E7AEC13F09DEC13F0D68E000E6E
:101D600005019B6F000E9A6F000E9D6F010E9C6F18
:101D7000A3EC13F00009D8B4C0EF0EF0C2EF0EF0E0
:101D8000FEEF0EF097EC13F070EC13F0135005011A
:101D90009A2714509B2370EC13F013C515F514C546
:101DA00016F5A7EC10F06EEC0FF0140E05019C195F
:101DB0009D11D8A4DEEF0EF0E0EF0EF0FCEF0EF078
:101DC000550E916F160E926F9AC593F59BC594F5BB
:101DD000A5EC13F00501996F9951956F966BC0ECC6
:101DE00012F0000E05019D6F010E9C6F000E9B6F9F
:101DF000000E9A6FFEEF0EF09C4B9D2B5DEC13F0E6
:101E00000009D8B406EF0FF008EF0FF0B8EF0EF0AE
:101E1000030000F0B8EF0EF00DEF00F0F7EC12F059
:101E200001C50DF502C50EF5E7EC12F001C50FF581
:101E300002C510F5000E0A6E000E096E000E0C6E43
:101E4000000E0B6E3E500D5C3F500E58D8B02BEF7D
:101E50000FF02DEF0FF035EF0FF03E1C096E3F1C19
:101E60000A6E000E3F6E000E3E6E3C500F5C3D5001
:101E70001058D8B03EEF0FF040EF0FF048EF0FF0E2
:101E80003C1C0B6E3D1C0C6E000E3D6E000E3C6E3D
:101E90003E500D5C076E3F500E58086E07500926E5
:101EA00008500A223C500F5C076E3D501058086ED7
:101EB00007500B2608500C220B50095C0501A26F3D
:101EC0000C500A58A36F010E4D6E0DC53EF50EC5A0
:101ED0003FF50FC53CF510C53DF51200000EC06E74
:101EE000BE98BE9A4C50D8B478EF0FF07AEF0FF04E
:101EF0007BEF0FF0C0800E0E4C6481EF0FF083EF8C
:101F00000FF084EF0FF0C082180E4C648AEF0FF0D0
:101F10008CEF0FF08DEF0FF0C084220E4C6493EF26
:101F20000FF095EF0FF096EF0FF0C0862C0E4C647B
:101F30009CEF0FF09EEF0FF09FEF0FF0C088360E72
:101F40004C64A5EF0FF0A7EF0FF0A8EF0FF0C08AD9
:101F5000400E4C64AEEF0FF0B0EF0FF0B1EF0FF0AA
:101F6000C08C4A0E4C64B7EF0FF0B9EF0FF0BAEF28
:101F70000FF0C08E540E4C64C0EF0FF0C2EF0FF0A4
:101F8000C3EF0FF0BE88630E4C64C9EF0FF0CBEFC8
:101F90000FF0CCEF0FF0BE8A1200000EBE6E000EE6
:101FA000BF6E000EC06E0A0EC66E700EC76E000EBB
:101FB000C86E020E0401006F000E086F000E106F55
:101FC000000E016F000E096F000E116F000E02016E
:101FD000876F000E866F000E0401026F000E0A6FFD
:101FE000000E126F370E036FF00E0B6F13693F0E6A
:101FF000046FF00E0C6F14690D0E0201726F0C0E5F
:10200000616F0E0E626F100E106F020E036F010EE5
:10201000016F000E0401056F000E066F000E076FC2
:10202000000E0D6F000E0E6F000E0F6F000E156F7D
:10203000000E166F000E176F120017501810D8B44C
:1020400024EF10F026EF10F02FEF10F017501810BB
:10205000D8A42DEF10F02FEF10F034EF10F0155042
:1020600007EC13F067EF10F020EE09F01750D926B7
:102070001850DA22DE50DE10D8B441EF10F043EFF2
:1020800010F05EEF10F020EE09F01750D92618502E
:10209000DA2210EE03F01750E1261850E222DE504B
:1020A000E65CE650800A1D6EDE50800A1D58D8B0EE
:1020B0005CEF10F05EEF10F067EF10F020EE03F031
:1020C0001750D9261850DA22DE2A000EDD2212001F
:1020D000000E0201A16F000EA26F000EA36F000E92
:1020E000A46F000EA56F000EA66F000EA76F000E66
:1020F000A86F000EA96F000EAA6FB00EAB6F800E16
:10210000AC6F080EAD6F220EAE6F000EAF6F200EDB
:10211000B06F000EB16F000EB26F000EB36F000E05
:10212000136E000E146E41EC13F0000E136E000ED1
:10213000146E33EC13F0000E136E000E146E25ECCB
:1021400013F0000E0501A76F000EA66F12004CC51C
:1021500019F51A6A16BEAFEF10F0B1EF10F0B7EF35
:1021600010F015501926000E1A22C3EF10F015C5F5
:1021700017F516C518F5171E181E174A182A1750F6
:10218000195E000E1A5A1ABECAEF10F0C8EF10F00E
:10219000D0EF10F0000E1A6E000E196EE2EF10F084
:1021A0001ABEDCEF10F01A5009E1650E195CD8A0D8
:1021B000DCEF10F0DEEF10F0E2EF10F0000E1A6E20
:1021C000640E196E19C54CF512002ABEEAEF10F024
:1021D000ECEF10F0F2EF10F029C52EF52AC52FF51F
:1021E000F6EF10F0000E2F6E000E2E6E000E2D6E0C
:1021F000000E2C6E08EF11F0000E166E200E156EFC
:1022000025C517F526C518F51DEC10F02C4A2D2A0A
:102210002E502C5C2D50800A2B6E2F50800A2B588C
:10222000D8A015EF11F017EF11F0FCEF10F027C553
:102230001EF528C51FF525C520F526C521F5BBECE3
:1022400011F012008BC58FF58CC590F537EF11F0AA
:1022500089C579F58AC57AF58F0E05017B6F050E64
:102260007C6F8DC57DF58EC57EF5F1EC0DF08FC5CB
:10227000F6F490C5F7F4F86A0800F5500009D8A400
:1022800044EF11F046EF11F028EF11F0000E0501B8
:102290008A6F000E896F1200FAC411F5FBC412F5A3
:1022A000A8AE55EF11F057EF11F060EF11F0B3AE9B
:1022B0005CEF11F05EEF11F060EF11F0AAEC13F09B
:1022C000ABA665EF11F067EF11F070EF11F0B6A655
:1022D0006CEF11F06EEF11F070EF11F066EC12F090
:1022E00012C5FBF411C5FAF41100000E0301266FAC
:1022F000000E276F0E0E286F000E246F000E236F46
:10230000235124C315F5166A15C516F5156A15105F
:102310000501D46F1650D56F520E136E270E146E32
:1023200075EC13F0B798B79A060E0301256F1200EB
:10233000000E0301156F000E166F0D0E176F000EC5
:10234000136F000E126F125113C315F5166A15C5DF
:1023500016F5156A15100501CE6F1650CF6F4E0E8B
:10236000136E270E146E7FEC13F0B698B69A060E15
:102370000301146F1200000E246E000E236ECCEFCA
:1023800011F022C515F5166A20C517F521C518F5F7
:102390001DEC10F0234A242A23501E24D96E245009
:1023A0001F20DA6EDF50226E2250D8A4DAEF11F02F
:1023B000DCEF11F0C1EF11F0120026BEEAEF11F0D0
:1023C000265006E12504D8B0E8EF11F0EAEF11F04D
:1023D000F8EF11F025C527F526C528F5271E281E7C
:1023E000274A282A27C525F528C526F5FCEF11F030
:1023F00025C525F526C526F51200176E000E166EAA
:1024000009EF12F0162A13C5D9F414C5DAF41750DF
:10241000DF5E13C5D9F414C5DAF41750DE5CD8B00A
:1024200014EF12F016EF12F002EF12F01650120035
:10243000D69AB490D680000E136E000E146E8EECF9
:1024400013F0B990D682000E136E000E146E89EC54
:1024500013F0BD90D684000E136E000E146E84EC43
:1024600013F01200010E0001D56F040ED76F000E9D
:10247000D86F010ED96F000EDA6F000EDB6F020EFF
:10248000DC6F080EDD6F080EDE6F000EDF6F000ED2
:10249000D46F860ED66F1200000E0001D56F040EA9
:1024A000D76F000ED86F010ED96F000EDA6F000ED5
:1024B000DB6F080EDC6F020EDD6F020EDE6F000EAA
:1024C000DF6F000ED46F860ED66F1200B696050130
:1024D000D051D111D8B46FEF12F071EF12F07DEF3F
:1024E00012F002D87DEF12F00500FA6ED051FD6EA9
:1024F000D151FE6EFF6AFA5012001200040E030161
:10250000206F000E1F6F000E216F600E1D6F000EFA
:102510001C6F500E136E270E146E7AEC13F0B696E5
:10252000AB86400E03011E6F120001EE9EF12E0ECF
:10253000EE6AE806FDE101EE3CF1120EEE6AE806F5
:10254000FDE10401080E5D6F000E5E6F000E5F6F0F
:1025500000019CEF0EF0000E136E0201B0ABB3EF62
:1025600012F0B5EF12F0BEEF12F0ABABBAEF12F013
:10257000BCEF12F0BEEF12F0010E136E13501200FA
:10258000930E0501976F050E986F000E896F000E70
:102590008A6F91C58BF592C58CF5970E8D6F050EE0
:1025A0008E6F22EC11F012004FEC13F0CDEC0FF017
:1025B0004CEC12F032EC12F098EC11F07EEC12F0D0
:1025C00075EC11F068EC10F018EC12F0120023C357
:1025D00005F5066A03012451046E036A03500512CF
:1025E0000450061205C501F506C502F5120012C316
:1025F00005F5066A03011351046E036A03500512C0
:102600000450061205C501F506C502F51200146E48
:10261000ABEC12F00009D8B410EF13F012EF13F086
:1026200008EF13F0145093EC13F01200000E4C6EF0
:10263000640E186E180E136E050E146E160EFDEC59
:1026400011F04B6E6EEC0FF0120013501410D8B452
:102650002CEF13F02EEF13F032EF13F013C5A4F5A7
:1026600014C5A5F5120013501410D8B43AEF13F0A6
:102670003CEF13F040EF13F013C540F514C541F5DE
:10268000120013501410D8B448EF13F04AEF13F0AF
:102690004EEF13F013C542F514C543F51200620E58
:1026A0000001AD6F000EAF6F000EB36F080EB16F7B
:1026B000000EB06F000EAC6F12000201B2BF63EFEC
:1026C00013F066EF13F0010E67EF13F0000E120027
:1026D000000E0501A36F000EA26F000E4D6E1200DA
:1026E000A2C513F5A3C514F5120013C5D2F514C580
:1026F000D3F5120013C5D0F514C5D1F5120013C5DA
:10270000CCF514C5CDF5120013C544F514C545F537
:10271000120013C546F514C547F5120013C548F558
:1027200014C549F51200136E13C5A3F21200000E72
:102730004D6E120003012581120003011E8F12004D
:102740000301148112004D5012004C50120012006F
:062750001200120012004D
:020000040020DA
:10000000FF0FFF0FFF0FFF0FFF0FFF0FFF0FFF0F80
:10001000FF0FFF0FFF0FFF0FFF0FFF0FFF0FFF0F70
:10002000FF0FFF0FFF0FFF0FFF0FFF0FFF0FFF0F60
:10003000FF0FFF0FFF0FFF0FFF0FFF0FFF0FFF0F50
:020000040030CA
:090000008CFFF7FF9FFFFFFFFFDB
:00000001FF
