:020000040000FA
:040000000DEF00F010
:040008007CEF10F089
:06001800FF0050EF10F0A4
:1016000000456E636F6465722056616C75653A20A3
:1016100025690A0D566F6C756D653A2025690A0DAE
:10162000000062C572F563C573F564C574F565C5E0
:1016300075F566C576F567C577F568C578F569C54A
:1016400079F5010E79AF000E706F716B70517111E9
:1016500010E0791F781F771F761F751F741F731F87
:10166000726D000E732374237523762377237823FA
:1016700079233CAE3D923CBE04D03C5006E13B0495
:1016800004E26D6B010E6C6F04D03BC56CF53CC57C
:101690006DF539C56EF53AC56FF57051711102E1FE
:1016A0003DA403D06E07D8A06F077B6B1F0E7A6F27
:1016B000C76B69D07A07D8A07B07ADD872C513F580
:1016C00073C514F574C515F575C516F576C517F50A
:1016D00077C518F578C519F579C51AF50A0E1B6E88
:1016E0001C6A1D6A1E6A1F6A206A216A226A46EC09
:1016F0000DF013C530F514C531F515C532F516C515
:1017000033F517C534F518C535F519C536F51AC5BD
:1017100037F530C525F532C526F509EC10F0255012
:10172000300FDF6E6C07D8A06D076E07D8A06F076B
:1017300072C513F573C514F574C515F575C516F5A1
:1017400076C517F577C518F578C519F579C51AF571
:101750000A0E1B6E1C6A1D6A1E6A1F6A206A216AB5
:10176000226A12EC0CF013C572F514C573F515C599
:1017700074F516C575F517C576F518C577F519C54D
:1017800078F51AC579F57BBF1CD07B5102E17A054B
:1017900018E3725173117411751176117711781164
:1017A000791188E16DBF05D06D5184E16C05D8B029
:1017B00081D76FBF06D06F5102E16E0502E33DB2E3
:1017C00079D77051711102E13DA410D07A07D8A0E9
:1017D0007B077051711103E16B6B2B0E02D06B6BA9
:1017E0002D0E6A6F18D86100A8F5DFF460C525F5E5
:1017F00061C526F5A80E7A25276E050E7B21286E79
:101800006EC529F56FC52AF5A7EC0EF025C560F564
:1018100026C561F51200A80E7A25D96E050E7B212A
:10182000DA6E1200246A22AE12D0221E211E201E61
:101830001F1E1E1E1D1E1C1E1B6C000E1C221D22A8
:101840001E221F22202221222222010E246E1AAEE5
:1018500012D01A1E191E181E171E161E151E141E33
:10186000136C000E14221522162217221822192298
:101870001A22010E241A256A266A276A286A296A0A
:101880002A6A2B6A2C6A1B501C101D101E101F1078
:1018900020102110221045E0010E236E0AD0D890AE
:1018A0001B361C361D361E361F3620362136223694
:1018B000232A22AEF4D7D890253626362736283666
:1018C00029362A362B362C361B50135C1C501458E4
:1018D0001D5015581E5016581F5017582050185894
:1018E0002150195822501A5811E31B50135E1C50F6
:1018F000145A1D50155A1E50165A1F50175A205070
:10190000185A2150195A22501A5A2580D89022323A
:10191000213220321F321E321D321C321B32232E46
:10192000CAD7245010E02C1E2B1E2A1E291E281E4A
:10193000271E261E256C000E262227222822292259
:101940002A222B222C2225C513F526C514F527C5DE
:1019500015F528C516F529C517F52AC518F52BC59F
:1019600019F52CC51AF5120079D8250A6CE1610029
:10197000F8F5D9F481D8396A3A6A3D6A3E6A3B681B
:101980003C686CD8640A03E069D8690A43E16100E5
:10199000F8F5D9F471D8610000F6D9F4610004F6C5
:1019A000DAF461007CF382F5020EDE2661007CF33E
:1019B00083F5000EDD22610008F6D9F461000CF613
:1019C000DAF4610078F384F5610074F385F585BF7E
:1019D000FF0E866F876F886F896F8A6F8B6F7CC5EC
:1019E00060F57DC561F584C562F585C563F586C57D
:1019F00064F587C565F588C566F589C567F58AC547
:101A000068F58BC569F511EC0BF060C57CF561C517
:101A10007DF5120023D8250A0FE16100F8F5D9F40D
:101A20002BD8166A250E156E2CD8E7EC0EF00501A2
:101A30007D6B010E7C6F010C6100F8F5D9F41CD8A8
:101A40007C6B7D6B12000AD8156E166A1AD8E7EC0B
:101A50000EF06100F8F5D9F40FD8E9D76100F8F578
:101A6000D9F46100FCF5DAF4DFC4F6F4160EF76E73
:101A7000F86A0800F55012006100FCF5DAF4DF2A7C
:101A800012007CC517F57DC518F51200246A1AAE40
:101A900003D06CD8010E246E22AE10D0221E211E5F
:101AA000201E1F1E1E1E1D1E1C1E1B6C000E1C2237
:101AB0001D221E221F222022212222221B501C1006
:101AC0001D101E101F102010211022103BE0010ECF
:101AD000236E0AD0D8901B361C361D361E361F3694
:101AE000203621362236232A22AEF4D71B50135C2F
:101AF0001C5014581D5015581E5016581F5017587A
:101B0000205018582150195822501A5810E31B50D1
:101B1000135E1C50145A1D50155A1E50165A1F5051
:101B2000175A2050185A2150195A22501A5AD89030
:101B30002232213220321F321E321D321C321B3221
:101B4000232ED4D7245001E011D813C513F514C5A2
:101B500014F515C515F516C516F517C517F518C5ED
:101B600018F519C519F51AC51AF512001A1E191E0D
:101B7000181E171E161E151E141E136C000E14229E
:101B8000152216221722182219221A22000C91EC73
:101B900010F05BEC11F01FEC11F063EC11F06CEC49
:101BA00011F02E0E136E1C0E146E52EC11F06EEC32
:101BB00011F0D68E05019A6B9B6B9D6B010E9C6F8D
:101BC00066EC11F000092CE06AEC11F048EC11F021
:101BD000135005019A2714509B2348EC11F013C5AC
:101BE00015F514C516F562EC0EF045EC0FF0140E69
:101BF00005019C199D1112E1010E916F9AC592F594
:101C00009BC593F568EC11F0946F956B03EC11F0A4
:101C10009D6B010E9C6F9A6B9B6B02D09C4B9D2B16
:101C20005FEC11F00009CCE0030000F0C9D7DEEC56
:101C300010F001C50FF502C510F5F1EC10F001C56B
:101C400011F502C512F50B6A0C6A0D6A0E6A415055
:101C50000F5C4250105806E2411C0B6E421C0C6E89
:101C6000416A426A3F50115C4050125806E23F1CE4
:101C70000D6E401C0E6E3F6A406A41500F5C096E4B
:101C8000425010580A6E09500B260A500C223F5041
:101C9000115C096E405012580A6E09500D260A5008
:101CA0000E220D500B5C436E0E500C58446E010E0C
:101CB000466E0FC541F510C542F511C53FF512C579
:101CC00040F5010C45C519F54C501502F350192685
:101CD0001950800A1C0F16E216BE14D0165002E1ED
:101CE000150410E32FD817BE18061726000E182269
:101CF00018BE08D0185003E1640E175C03E3640EAD
:101D0000196E13D01950800A7F0F0FE316AE0DD055
:101D100019D817BE1806175E000E185A18BE04D040
:101D2000185003E1170401E2196A19AE02D0196ACA
:101D300006D01950800A1B0F02E3640E196E19C5F4
:101D400045F512004C5019C517F5186A12003DA050
:101D500003D034D8BEEC0FF02ABE05D029C52EF52D
:101D60002AC52FF502D02E6A2F6A2C6A2D6A0BD055
:101D7000166A200E156E25C517F526C518F5E7EC71
:101D80000EF02C4A2D2A2E502C5C2D50800A2B6EE2
:101D90002F50800A2B58ECE33DB003D00FD8BEEC97
:101DA0000FF027C513F528C514F566EC10F02E507A
:101DB0001324256E2F501420266E120027C51EF501
:101DC00028C51FF525C520F526C521F51200175099
:101DD000181003E01750181003E1155057EF11F0D9
:101DE0001ED8DE50DE1011E01AD810EE02F01750A7
:101DF000E1261850E222DE50E65CE650800A1D6EB5
:101E0000DE50800A1D58D8B0120020EE02F01750A4
:101E1000D9261850DA22DE2A000EDD22000C20EE30
:101E200004F01750D9261850DA221200AC92720E24
:101E3000136E200E146E4DEC11F00201A56BA66B13
:101E4000A76BA86BA96BAA6BB00EAB6F800EAC6FC3
:101E5000AD6B100EAE6FAF6BB06BB16BB26BB36BA3
:101E6000000E136A146A75EC11F0000E136A146AFE
:101E700074EC11F0000E136A146A76EC11F0476AE4
:101E8000496A486A080E4D6E080CC06ABE98BE9A30
:101E9000455001E0C0800E0E456401D0C082180E8E
:101EA000456401D0C084220E456401D0C0862C0E4A
:101EB000456401D0C088360E456401D0C08A400E0A
:101EC000456401D0C08C4A0E456401D0C08E540ECA
:101ED000456401D0BE88630E4564630CBE8A630C02
:101EE000BE6ABF6AC06A0F0EC66E700EC76EC86A41
:101EF0000401106B800E086F070E006F096B016BF9
:101F0000116B026B0A6B126B370E036FF00E0B6FC7
:101F100013693F0E046FF00E0C6F14690C0E020172
:101F2000616F100E106F0E0E626F0D0E726F0D0C42
:101F30008EC538F5A66BA76B13D08CC57CF58DC507
:101F40007DF5380E7E6F050E7F6F8FC580F590C5CD
:101F500081F5B4EC0CF005017C51A6277D51A72337
:101F60006100E0F4F6F4160EF76EF86A0800F5501A
:101F7000E4E1A6C58CF5A7C58DF51200236A246A95
:101F80000BD022C515F5166A20C517F521C518F521
:101F9000E7EC0EF0234A242A23501E24D96E245045
:101FA0001F20DA6EDF50226E2250EBE11200136E1A
:101FB0004D50FEE0ACB204D061004CF4A3F20ED060
:101FC000AC929E0E49244BEC10F061004CF4DFF40F
:101FD000492A070E496401D0496A4D06AC821200B5
:101FE0000301266B276B0E0E286F246B236BB798AB
:101FF0002351600090FC13F5146A13C514F5136A9D
:1020000013100501CA6F1450CB6F070E0301256F23
:10201000070C26BE04D026500FE125040DE225C58D
:1020200027F526C528F5271E281E274A282A27C552
:1020300025F528C526F5120025C525F526C526F562
:102040001200156B166B0D0E176F136B126BB69893
:10205000125160004CFC13F5146A13C514F5136A91
:1020600013100501C86F1450C96F070E0301146FD8
:10207000070C080E4D600DD09E0E48240CD8DF5082
:102080000201A36F482A070E486401D0486A4D2A0E
:102090001200AC921200D96EDA6A050EDA22120032
:1020A00001EE9EF12A0EEE6AE806FDE101EE39F13D
:1020B000110EEE6AE806FDE10401080E5D6F000EE8
:1020C0005E6F000E5F6F0001C7EF0DF013C515F5D1
:1020D00014C516F502D0134A142A61004CF4D9F441
:1020E000610050F4DAF4DF50F6E11550135C136E22
:1020F00016501458146E1200ACB2B7A20CD001D80E
:1021000011000500FA6E0501CC51FD6ECD51FE6E39
:10211000FF6AFA501200ABB6B6A6110011EC11F02E
:10212000110072EC11F040EC11F070EC0FF02CEC9F
:1021300011F0CBEC10F0F0EC0FF036EC11F0B8EC45
:1021400010F021EC10F016EF0FF0176E166A03D0A6
:10215000162A06D8DF5E04D8DE5CFAE216501200BA
:1021600061004CF4D9F4610050F4DAF41750120015
:10217000040E0301206F1F6B216B0B0E1D6F1C6B78
:10218000B696AB86EE0E136E220E146E52EC11F064
:10219000F00E1E6FF00CD56B040ED76FD86B010ECE
:1021A000D96F00D0DA6BDB6B020EDC6F080EDD6FCF
:1021B000DE6FDF6BD46B860ED66F860C0301148343
:1021C000600048FC08F560004CFC07F50750036E02
:1021D0000850056E03C506F505C501F506C502F5EF
:1021E0001200258360008CFC08F5600090FC07F568
:1021F0000750036E0850056E03C506F505C501F5C9
:1022000006C502F51200920E986F050E996F8C6B41
:102210008D6B91C58EF5980E8F6F050E906F98EFB0
:102220000FF0B6964A504B10D8B412000500FA6E63
:102230004A50FD6E4B50FE6EFF6AFA501200456A1E
:10224000640E186E180E136E050E146E160EA5ECA5
:1022500010F04C6E45EF0FF0620E0001AD6FAF6BEA
:10226000B36B060EB16FB06BAC6B1200010E0001C8
:10227000D56F040ED76F010ED86FD96BD2EF10F067
:102280000001636B646B656B666B676B686B120058
:1022900043C513F544C514F5120013C5CCF514C598
:1022A000CDF5120013C54AF514C54BF51200146E96
:1022B0001450D7EF0FF0436A446A466A12000201D5
:1022C000B2BF010C000C0301148112004650120031
:1022D00045501200466A12002581120070EF11F07D
:1022E0001E8F1200D69A1200120012001200120065
:020000040020DA
:10000000FF0FFF0FFF0FFF0FFF0FFF0FFF0FFF0F80
:10001000FF0FFF0FFF0FFF0FFF0FFF0FFF0FFF0F70
:020000040030CA
:0A000000ECFFF7FF9FFFFFFFFFFF7B
:00000001FF
