:020000040000FA
:040000000DEF00F010
:0400080049EF11F0BB
:06001800FF004FEF10F0A5
:1016000000456E636F6465722056616C75653A20A3
:1016100025690A0D566F6C756D653A2025690A0DAE
:10162000000030C5A7F531C5A8F532C5A9F533C509
:10163000AAF534C5ABF535C5ACF536C5ADF537C53E
:10164000AEF5010EAEAF000EA56FA66BA551A611AB
:1016500010E0AE1FAD1FAC1FAB1FAA1FA91FA81F14
:10166000A76D000EA823A923AA23AB23AC23AD2387
:10167000AE2341AE429241BE04D0415006E1400447
:1016800004E2A26B010EA16F04D040C5A1F541C5D3
:10169000A2F57AC5A3F57BC5A4F5A551A61102E173
:1016A00042A403D0A307D8A0A407B06B1F0EAF6F4E
:1016B0009E6B69D0AF07D8A0B007ADD8A7C511F50C
:1016C000A8C512F5A9C513F5AAC514F5ABC515F53E
:1016D000ACC516F5ADC517F5AEC518F50A0E196EF1
:1016E0001A6A1B6A1C6A1D6A1E6A1F6A206A46EC17
:1016F0000DF011C538F512C539F513C53AF514C505
:101700003BF515C53CF516C53DF517C53EF518C5A5
:101710003FF538C523F53AC524F520EC10F02350E9
:10172000300FDF6EA107D8A0A207A307D8A0A40797
:10173000A7C511F5A8C512F5A9C513F5AAC514F5D5
:10174000ABC515F5ACC516F5ADC517F5AEC518F5A5
:101750000A0E196E1A6A1B6A1C6A1D6A1E6A1F6AC3
:10176000206A12EC0CF011C5A7F512C5A8F513C537
:10177000A9F514C5AAF515C5ABF516C5ACF517C581
:10178000ADF518C5AEF5B0BF1CD0B05102E1AF0544
:1017900018E3A751A811A911AA11AB11AC11AD11F1
:1017A000AE1188E1A2BF05D0A25184E1A105D8B055
:1017B00081D7A4BF06D0A45102E1A30502E342B23F
:1017C00079D7A551A61102E142A410D0AF07D8A045
:1017D000B007A551A61103E1A06B2B0E02D0A06BA0
:1017E0002D0E9F6F18D861007CF6DFF42EC523F50F
:1017F0002FC524F57F0EAF25256E050EB021266E70
:10180000A3C527F5A4C528F56FEC0EF023C52EF56A
:1018100024C52FF512007F0EAF25D96E050EB0211D
:10182000DA6E1200226A20AE12D0201E1F1E1E1E6B
:101830001D1E1C1E1B1E1A1E196C000E1A221B22B6
:101840001C221D221E221F222022010E226E18AEF3
:1018500012D0181E171E161E151E141E131E121E41
:10186000116C000E122213221422152216221722A6
:101870001822010E221A236A246A256A266A276A18
:10188000286A296A2A6A19501A101B101C101D1088
:101890001E101F10201045E0010E216E0AD0D890B6
:1018A00019361A361B361C361D361E361F362036A4
:1018B000212A20AEF4D7D890233624362536263672
:1018C0002736283629362A361950115C1A501258F4
:1018D0001B5013581C5014581D5015581E501658A4
:1018E0001F5017582050185811E31950115E1A5004
:1018F000125A1B50135A1C50145A1D50155A1E5080
:10190000165A1F50175A2050185A2380D890203248
:101910001F321E321D321C321B321A321932212E56
:10192000CAD7225010E02A1E291E281E271E261E56
:10193000251E241E236C000E242225222622272267
:10194000282229222A2223C511F524C512F525C5EE
:1019500013F526C514F527C515F528C516F529C5AF
:1019600017F52AC518F5120079D8250A6CE161002F
:10197000CCF6D9F481D87A6B7B6B426A436A4068B3
:1019800041686CD8640A03E069D8690A43E16100E0
:10199000CCF6D9F471D86100D4F6D9F46100D8F648
:1019A000DAF461007CF3B7F5020EDE2661007CF309
:1019B000B8F5000EDD226100DCF6D9F46100E0F636
:1019C000DAF4610078F3B9F5610074F3BAF5BABFDF
:1019D000FF0EBB6FBC6FBD6FBE6FBF6FC06FB1C579
:1019E0002EF5B2C52FF5B9C530F5BAC531F5BBC571
:1019F00032F5BCC533F5BDC534F5BEC535F5BFC53B
:101A000036F5C0C537F511EC0BF02EC5B1F52FC575
:101A1000B2F5120023D8250A0FE16100CCF6D9F403
:101A20002BD8146A250E136E2CD81FEC0FF005016D
:101A3000B26B010EB16F010C6100CCF6D9F41CD869
:101A4000B16BB26B12000AD8136E146A1AD81FEC6D
:101A50000FF06100CCF6D9F40FD8E9D76100CCF6CD
:101A6000D9F46100D0F6DAF4DFC4F6F4160EF76E9E
:101A7000F86A0800F55012006100D0F6DAF4DF2AA7
:101A80001200B1C515F5B2C516F51200226A18AEDE
:101A900003D06CD8010E226E20AE10D0201E1F1E67
:101AA0001E1E1D1E1C1E1B1E1A1E196C000E1A2245
:101AB0001B221C221D221E221F22202219501A1016
:101AC0001B101C101D101E101F1020103BE0010EDB
:101AD000216E0AD0D89019361A361B361C361D36A0
:101AE0001E361F362036212A20AEF4D71950115C3D
:101AF0001A5012581B5013581C5014581D5015588A
:101B00001E5016581F5017582050185810E31950DF
:101B1000115E1A50125A1B50135A1C50145A1D5061
:101B2000155A1E50165A1F50175A2050185AD8903E
:101B300020321F321E321D321C321B321A32193231
:101B4000212ED4D7225001E011D811C511F512C5AC
:101B500012F513C513F514C514F515C515F516C5FD
:101B600016F517C517F518C518F51200181E171E1B
:101B7000161E151E141E131E121E116C000E1222AC
:101B8000132214221522162217221822000CA2EC6E
:101B900010F04FEC11F02DEC11F003011483000E46
:101BA000126A116A12EC11F08BEC11F02583000E11
:101BB000126A116A04EC11F087EC11F0460E116EF6
:101BC0001C0E126E6DEC11F089EC11F0D68E050131
:101BD000D06BD16BD36B010ED26F7FEC11F000098B
:101BE0002CE083EC11F054EC11F011500501D027DA
:101BF0001250D12354EC11F011C513F512C514F590
:101C000079EC0FF04EEC0FF0140E0501D219D31140
:101C100012E1010EC76FD0C5C8F5D1C5C9F581EC79
:101C200011F0CA6FCB6BF6EC10F0D36B010ED26FD4
:101C3000D06BD16B02D0D24BD32B85EC11F00009C5
:101C4000CCE000F0CAD7C6EC10F001C50DF502C516
:101C50000EF5D7EC10F001C50FF502C510F5096AB5
:101C60000A6A0B6A0C6A46500D5C47500E5806E231
:101C7000461C096E471C0A6E466A476A44500F5C50
:101C80004550105806E2441C0B6E451C0C6E446A0D
:101C9000456A46500D5C076E47500E58086E075057
:101CA000092608500A2244500F5C076E4550105810
:101CB000086E07500B2608500C220B50095C0501DA
:101CC0007C6F0C500A587D6F010E496E0DC546F5AC
:101CD0000EC547F50FC544F510C545F5010C42A0EA
:101CE00003D034D807EC10F028BE05D027C52CF55A
:101CF00028C52DF502D02C6A2D6A2A6A2B6A0BD0D2
:101D0000146A200E136E23C515F524C516F51FECB5
:101D10000FF02A4A2B2A2C502A5C2B50800A296E5D
:101D20002D50800A2958ECE342B003D00FD807ECBD
:101D300010F025C511F526C512F565EC10F02C50F4
:101D40001124236E2D501220246E120025C51CF57F
:101D500026C51DF523C51EF524C51FF51200AC9040
:101D6000000E116A126A8FEC11F0AC92000E116A2B
:101D7000126A8EEC11F0AC94000E116A126A90ECAB
:101D800011F0AC96000E116A126A8DEC11F002018E
:101D9000A16BA26BA36BA46BA56BA66BA76BA86BC7
:101DA000A96BAA6BA00EAB6F800EAC6FAD6B890EEA
:101DB000AE6FAF6BB06BB16BB26BB36B000E116AF1
:101DC000126A5EEC11F0000E116A126A59EC11F001
:101DD000000E116A126A63EC11F04A6A1200BE6AC0
:101DE000BF6AC06A0F0EC66E700EC76EC86A040165
:101DF000006B086B106B016B096B116B026B0A6B4C
:101E0000126B370E036FF00E0B6F13693F0E046FEA
:101E1000F00E0C6F14690C0E0201616F0E0E626FF2
:101E20000D0E726F100E106F0401056B066B076BC1
:101E30000D6B0E6B0F6B156B166B176B120015503D
:101E4000161003E01550161003E1135077EF11F050
:101E50001ED8DE50DE1011E01AD810EE02F0155038
:101E6000E1261650E222DE50E65CE650800A1B6E48
:101E7000DE50800A1B58D8B0120020EE02F0155038
:101E8000D9261650DA22DE2A000EDD22000C20EEC2
:101E900004F01550D9261650DA221200C06ABE98F6
:101EA000BE9A485001E0C0800E0E486401D0C08246
:101EB000180E486401D0C084220E486401D0C08648
:101EC0002C0E486401D0C088360E486401D0C08A08
:101ED000400E486401D0C08C4A0E486401D0C08EC8
:101EE000540E486401D0BE88630E4864630CBE8AF9
:101EF000630C48C517F5186A14BE05D01350172691
:101F0000000E18220CD013C515F514C516F5151EB4
:101F1000161E154A162A1550175E000E185A18AECE
:101F200003D0176A186A0AD018BE08D0185003E107
:101F3000650E175C03E3186A640E176E17C548F543
:101F40001200C3C5C6F5786B796B13D0C1C5B1F566
:101F5000C2C5B2F5C60EB36F050EB46FC4C5B5F5F4
:101F6000C5C5B6F5B4EC0CF00501B1517827B251F6
:101F70007923610018F7F6F4160EF76EF86A080078
:101F8000F550E4E178C5C1F579C5C2F51200030149
:101F9000266B276B0E0E286F24692369235160007E
:101FA00090FC13F5146A13C514F5136A1310050198
:101FB000E26F1450E36F2C0E116E230E126E68EC5C
:101FC00011F0B798B79A040E0301256F040C0301B2
:101FD000156B166B0D0E176F1369126912516000A5
:101FE0004CFC13F5146A13C514F5136A131005019C
:101FF000DE6F1450DF6F2A0E116E230E126E72EC1C
:1020000011F0B698B69A040E0301146F040C216AFD
:10201000226A0BD020C513F5146A1EC515F51FC51D
:1020200016F51FEC0FF0214A222A21501C24D96EEC
:1020300022501D20DA6EDF50206E2050EBE112009E
:1020400024BE04D024500FE123040DE223C525F55E
:1020500024C526F5251E261E254A262A25C523F534
:1020600026C524F5120023C523F524C524F5120046
:102070000001D56B04D8080EDC6F020E09D0040EE7
:10208000D76FD86B010ED96F040EDA6FDB6B1200BD
:10209000DD6FDE6FDF6BD46B860ED66F860C01EEC4
:1020A00060F13F0EEE6AE806FDE101EE40F1100E30
:1020B000EE6AE806FDE10401080E5D6F000E5E6F3A
:1020C000000E5F6F0001C7EF0DF011C513F512C5CB
:1020D00014F502D0114A122A610044F4D9F46100C7
:1020E00048F4DAF4DF50F6E11350115C116E14502D
:1020F0001258126E1200D69AB490D680000E116A51
:10210000126A93EC11F0B990D682000E116A126A2D
:1021100092EC11F0BD90D684116A126A000C156E13
:10212000146A03D0142A06D8DF5E04D8DE5CFAE213
:1021300014501200610044F4D9F4610048F4DAF458
:102140001550120020EC11F0AFEC0EF07BEC10F00B
:10215000C7EC0FF0B4EC10F038EC10F039EC11F0E3
:10216000E7EC0FF0EFEF0EF0040E206F1F6B216B0A
:10217000600E1D6F1C6B280E116E230E126E6DEC1F
:1021800011F0B696AB86C00E1E6FC00C600048FC06
:1021900005F5066A03011351046E036A0350051224
:1021A0000450061205C501F506C502F512006000CF
:1021B0008CFC05F5066A2451046E036A035005126F
:1021C0000450061205C501F506C502F51200B696C3
:1021D0000501DA51DB11D8B412000500FA6EDA51AC
:1021E000FD6EDB51FE6EFF6AFA501200C80ECE6F14
:1021F000050ECF6FC16BC26BC7C5C3F5CE0EC46FE2
:10220000050EC56FA1EF0FF025A505D0259103D8C8
:102210002581120000D0610048F424F3610044F4E9
:1022200023F3120014A505D0149103D814811200D1
:1022300000D0610048F413F3610044F412F312007B
:10224000600E0001AD6F700EAE6FAF6BB36B080E1A
:10225000B16FB26BB06BAC6B1200486A640E166E55
:10226000160E116E050E126E160E8FEC10F04EEF5C
:102270000FF0010ED56F3FEC10F0020EDC6F080E70
:1022800048EF10F0116EB7A2FED7610044F4A3F23C
:102290001200ABB6B6A61100E7EC10F01100050174
:1022A0007C6B7D6B496A12007CC511F57DC512F50A
:1022B000120011C5D6F512C5D7F5120011C5D8F513
:1022C00012C5D9F5120011C5D4F512C5D5F5120005
:1022D00011C5E0F512C5E1F5120011C5DAF512C518
:1022E000DBF5120011C5DCF512C5DDF51200126E2A
:1022F000125042EF11F00201B2BF010C000C495024
:10230000120048501200496A12007BEF11F025813B
:1023100012001E8F1200148112001200120012000F
:0E232000120012001200120012001200120031
:020000040020DA
:10000000FF0FFF0FFF0FFF0FFF0FFF0FFF0FFF0F80
:10001000FF0FFF0FFF0FFF0FFF0FFF0FFF0FFF0F70
:020000040030CA
:0A0000008CFFF7FF9FFFFFFFFFFFDB
:00000001FF
