:040000000DEF00F010
:04000800F7EF0FF00F
:06001800FF00B7EF0FF03E
:1016000000456E636F6465722056616C75653A20A3
:1016100025690A0D566F6C756D653A2025690A0DAE
:10162000000032C56EF533C56FF534C570F535C5AC
:1016300071F536C572F537C573F538C574F539C51A
:1016400075F5010E75AF000E766F765110E0751FBF
:10165000741F731F721F711F701F6F1F6E6D000E3E
:101660006F237023712372237323742375233FBE6A
:1016700004D03F5007E13E0405E2000E6B6F010EFF
:101680006A6F04D03EC56AF53FC56BF53CC56CF585
:101690003DC56DF576510DE06C07D8A06D0776510C
:1016A00003E1696B2B0E02D0696B2D0E686F68C564
:1016B00076F5786B1F0E776FB86B66D090D86EC5D5
:1016C00013F56FC514F570C515F571C516F572C51E
:1016D00017F573C518F574C519F575C51AF50A0E11
:1016E0001B6E1C6A1D6A1E6A1F6A206A216A226AB2
:1016F0009BEC0CF013C560F514C561F515C562F5DA
:1017000016C563F517C564F518C565F519C566F501
:101710001AC567F560C525F561C526F59FEC0FF084
:101720002550300FDF6E6A07D8A06B076C07D8A072
:101730006D076EC513F56FC514F570C515F571C548
:1017400016F572C517F573C518F574C519F575C585
:101750001AF50A0E1B6E1C6A1D6A1E6A1F6A206A31
:10176000216A226AF9EC0BF013C56EF514C56FF50A
:1017700015C570F516C571F517C572F518C573F561
:1017800019C574F51AC575F578BF14D0785102E102
:10179000770510E36E516F11701171117211731191
:1017A000741175118BE16BBF05D06B5187E16A0530
:1017B000D8B084D7765103E012D876C5DFF430C5AF
:1017C00025F531C526F5990E7725276E050E78216A
:1017D000286E6CC529F56DC52AF5B3EF0EF07707B5
:1017E000D8A07807990E7725D96E050E7821DA6E84
:1017F0001200246A22AE12D0221E211E201E1F1E9D
:101800001E1E1D1E1C1E1B6C000E1C221D221E22D5
:101810001F22202221222222010E246E1AAE12D073
:101820001A1E191E181E171E161E151E141E136CC6
:10183000000E1422152216221722182219221A220B
:10184000010E241A256A266A276A286A296A2A6AE2
:101850002B6A2C6A1B501C101D101E101F1020100C
:101860002110221045E0010E236E0AD0D8901B36BD
:101870001C361D361E361F36203621362236232AC8
:1018800022AEF4D7D8902536263627362836293684
:101890002A362B362C361B50135C1C5014581D5006
:1018A00015581E5016581F501758205018582150C0
:1018B000195822501A5811E31B50135E1C50145A29
:1018C0001D50155A1E50165A1F50175A2050185A9C
:1018D0002150195A22501A5A2580D890223221328A
:1018E00020321F321E321D321C321B32232ECAD729
:1018F000245010E02C1E2B1E2A1E291E281E271ED7
:10190000261E256C000E26222722282229222A2282
:101910002B222C2225C513F526C514F527C515F550
:1019200028C516F529C517F52AC518F52BC519F5CB
:101930002CC51AF51200246A1AAE03D06CD8010E19
:10194000246E22AE10D0221E211E201E1F1E1E1E1F
:101950001D1E1C1E1B6C000E1C221D221E221F227F
:101960002022212222221B501C101D101E101F108D
:101970002010211022103BE0010E236E0AD0D890D7
:101980001B361C361D361E361F36203621362236B3
:10199000232A22AEF4D71B50135C1C5014581D5040
:1019A00015581E5016581F501758205018582150BF
:1019B000195822501A5810E31B50135E1C50145A29
:1019C0001D50155A1E50165A1F50175A2050185A9B
:1019D0002150195A22501A5AD890223221322032DC
:1019E0001F321E321D321C321B32232ED4D72450FC
:1019F00001E011D813C513F514C514F515C515F577
:101A000016C516F517C517F518C518F519C519F532
:101A10001AC51AF512001A1E191E181E171E161EB8
:101A2000151E141E136C000E1422152216221722E6
:101A3000182219221A22000C63D8DFC4F6F45AD8EF
:101A4000250A4BE15DD8DF2A3C6A3D6A3E683F6863
:101A500057D8DF50876F87C5F6F44CD8640A05E085
:101A600087C5F6F447D8690A35E17DC5D9F47EC546
:101A7000DAF4DFC43AF5020EDE26DFC43BF5000ED1
:101A8000DD223AC5D9F43BC5DAF4DEC47FF5DDC406
:101A900080F580BFFF0E816F826F836F846F856FCB
:101AA000866F87292DD8DF6E79C530F57AC531F577
:101AB0007FC532F580C533F581C534F582C535F56E
:101AC00083C536F584C537F585C538F586C539F53E
:101AD00011EF0BF015D8DF2A120012D8DFC4F6F48C
:101AE00009D8156E166A79C517F57AC518F559EC37
:101AF0000EF0F0D7160EF76EF86A0800F5501200D7
:101B00007BC5D9F47CC5DAF412000AEC10F0D5ECF0
:101B100010F07BEC10F0DDEC10F0E6EC10F0AA0E0B
:101B2000136E1B0E146EC7EC10F0E8EC10F0D68E9E
:101B30000501956B966B986B010E976FE0EC10F0BA
:101B400000092CE0E4EC10F0BDEC10F0135005019E
:101B5000952714509623BDEC10F013C515F514C548
:101B600016F506EC0FF088EC0EF0140E050197192F
:101B7000981112E1010E8E6F95C58FF596C590F5FF
:101B8000E2EC10F0916F926B6DEC10F0986B010E1F
:101B9000976F956B966B02D0974B982BD9EC10F002
:101BA0000009CCE0030000F0C9D73FEC10F001C5FC
:101BB0000DF502C50EF55EEC10F001C50FF502C57E
:101BC00010F5096A0A6A0B6A0C6A42500D5C4350B0
:101BD0000E5806E2421C096E431C0A6E426A436AB2
:101BE00040500F5C4150105806E2401C0B6E411CE7
:101BF0000C6E406A416A42500D5C076E43500E58AD
:101C0000086E0750092608500A2240500F5C076EE4
:101C100041501058086E07500B2608500C220B50EC
:101C2000095C446E0C500A58456E010E4D6E0DC590
:101C300042F50EC543F50FC540F510C541F5010C41
:101C4000BE6ABF6AC06A0A0EC66E700EC76EC86AE8
:101C5000020E0401006F086B106B016B096B116BB6
:101C60000201876B866B0401026B0A6B126B370EE5
:101C7000036FF00E0B6F13693F0E046FF00E0C6FC5
:101C800014690D0E0201726F0C0E616F0E0E626F01
:101C9000100E106F020E036F010E016F0401056B31
:101CA000066B076B0D6B0E6B0F6B156B166B176B63
:101CB00012001750181003E01750181003E11550C8
:101CC000B5EF10F01ED8DE50DE1011E01AD810EE7D
:101CD00003F01750E1261850E222DE50E65CE65091
:101CE000800A1D6EDE50800A1D58D8B0120020EE0A
:101CF00003F01750D9261850DA22DE2A000EDD2212
:101D0000000C20EE09F01750D9261850DA221200E4
:101D1000C06ABE98BE9A4C5001E0C0800E0E4C6462
:101D200001D0C082180E4C6401D0C084220E4C64D5
:101D300001D0C0862C0E4C6401D0C088360E4C6495
:101D400001D0C08A400E4C6401D0C08C4A0E4C6455
:101D500001D0C08E540E4C6401D0BE88630E4C641A
:101D6000630CBE8A630C2ABE05D029C52EF52AC590
:101D70002FF502D02E6A2F6A2C6A2D6A0BD0166AB4
:101D8000200E156E25C517F526C518F559EC0EF071
:101D90002C4A2D2A2E502C5C2D50800A2B6E2F5051
:101DA000800A2B58ECE327C51EF528C51FF525C56D
:101DB00020F526C521F586EF0FF00201A16BA26B7D
:101DC000A36BA46BA56BA66BA76BA86BA96BAA6B87
:101DD000B00EAB6F800EAC6F080EAD6F220EAE6F03
:101DE000AF6B200EB06FB16BB26BB36B136A146A3A
:101DF000A3EC10F0136A146A9AEC10F0000E136A48
:101E0000146AEAEC10F04A6A4B6A12004CC519F5E4
:101E10001A6A16BE05D015501926000E1A220CD0CB
:101E200015C517F516C518F5171E181E174A182AD6
:101E30001750195E000E1A5A1AAE03D0196A1A6AA0
:101E40000AD01ABE08D01A5003E1650E195C03E3EC
:101E50001A6A640E196E19C54CF512000301156B50
:101E6000166B0D0E176F136B126B125113C315F512
:101E7000166A15C516F5156A15100501BB6F1650C3
:101E8000BC6FDC0E136E210E146ECCEC10F0B69805
:101E9000B69A060E0301146F060C266B276B0E0E06
:101EA000286F246B236B235124C315F5166A15C5BF
:101EB00016F5156A15100501C16F1650C26FE00EB8
:101EC000136E210E146EC2EC10F0B798B79A060E7E
:101ED0000301256F060C8AC58DF50FD088C579F5ED
:101EE00089C57AF58D0E05017B6F050E7C6F8BC55C
:101EF0007DF58CC57EF51CEC0DF08DC5F6F47AEC05
:101F00000DF0ECE10501886B896B1200236A246AED
:101F10000BD022C515F5166A20C517F521C518F591
:101F200059EC0EF0234A242A23501E24D96E245043
:101F30001F20DA6EDF50226E2250EBE1120026BE27
:101F400004D026500FE125040DE225C527F526C54E
:101F500028F5271E281E274A282A27C525F528C523
:101F600026F5120025C525F526C526F5120001EE39
:101F700099F1200EEE6AE806FDE101EE3CF1120E49
:101F8000EE6AE806FDE10401080E5D6F000E5E6F6B
:101F9000000E5F6F000185EF0DF00001D56B04D8D6
:101FA000080EDC6F020E08D0040ED76FD86B010E3E
:101FB000D96FDA6BDB6B1200DD6FDE6FDF6BD46B1A
:101FC000860ED66F860CD69AB490D680000E136A11
:101FD000146AEDEC10F0B990D682000E136A146A00
:101FE000ECEC10F0BD90D684136A146A000CFAC4AD
:101FF00011F5FBC412F5A8BEB3AE02D0F1EC10F09F
:10200000ABB6B6A602D04FEC10F012C5FBF411C56A
:10201000FAF4110087EC10F020EC0EF0CDEC0FF08C
:10202000ACEC10F02EEC0FF01CEC10F04DEC0FF0BF
:10203000DDEC0EF0E3EF0FF0040E206F1F6B216B51
:10204000600E1D6F1C6BDE0E136E210E146EC7EC3E
:1020500010F0B696AB86400E1E6F400C176E166AD7
:1020600003D0162A06D8DF5E04D8DE5CFAE21650EA
:10207000120013C5D9F414C5DAF41750120012C3B4
:1020800005F5066A03011351046E036A0350051235
:102090000450061205C501F506C502F51200B696F4
:1020A0000501BD51BE11D8B412000500FA6EBD5134
:1020B000FD6EBE51FE6EFF6AFA50120023C305F595
:1020C000066A2451046E036A035005120450061276
:1020D00005C501F506C502F512008F0E936F050EBA
:1020E000946F886B896B8EC58AF5930E8B6F050E86
:1020F0008C6F6BEF0FF04C6A640E186E180E136E37
:10210000050E146E160E2EEC10F088EF0EF0620E17
:102110000001AD6FAF6BB36B080EB16FB06BAC6B02
:102120001200136A0201B0BBABAB02D0010E136EFA
:102130001350120013501410D8B4120013C546F5F2
:1021400014C547F5120013501410D8B4120013C56B
:1021500048F514C549F51200010ED56FD4EC0FF007
:10216000020EDC6F080EDCEF0FF0146E91EC10F035
:102170000009FCE01450D1EF10F044C513F545C53B
:1021800014F5120013C5BFF514C5C0F5120013C530
:10219000BDF514C5BEF5120013C5B9F514C5BAF5E1
:1021A0001200136E13C5A3F21200446A456A4D6A09
:1021B00012000201B2BF010C000C030114811200D5
:1021C0004D5012004C5012004D6A12002581120031
:1021D0001E8F1200120012001200120012001200D4
:0421E00012001200D7
:020000040020DA
:10000000FF0FFF0FFF0FFF0FFF0FFF0FFF0FFF0F80
:10001000FF0FFF0FFF0FFF0FFF0FFF0FFF0FFF0F70
:10002000FF0FFF0FFF0FFF0FFF0FFF0FFF0FFF0F60
:10003000FF0FFF0FFF0FFF0FFF0FFF0FFF0FFF0F50
:020000040030CA
:090000008CFFF7FF9FFFFFFFFFDB
:00000001FF
